{
  "_format": "hh-sol-artifact-1",
  "contractName": "Credentials",
  "sourceName": "contracts/Credentials.sol",
  "abi": [
    {
      "inputs": [],
      "stateMutability": "nonpayable",
      "type": "constructor"
    },
    {
      "anonymous": false,
      "inputs": [
        {
          "indexed": true,
          "internalType": "address",
          "name": "owner",
          "type": "address"
        },
        {
          "indexed": true,
          "internalType": "address",
          "name": "approved",
          "type": "address"
        },
        {
          "indexed": true,
          "internalType": "uint256",
          "name": "tokenId",
          "type": "uint256"
        }
      ],
      "name": "Approval",
      "type": "event"
    },
    {
      "anonymous": false,
      "inputs": [
        {
          "indexed": true,
          "internalType": "address",
          "name": "owner",
          "type": "address"
        },
        {
          "indexed": true,
          "internalType": "address",
          "name": "operator",
          "type": "address"
        },
        {
          "indexed": false,
          "internalType": "bool",
          "name": "approved",
          "type": "bool"
        }
      ],
      "name": "ApprovalForAll",
      "type": "event"
    },
    {
      "anonymous": false,
      "inputs": [
        {
          "indexed": true,
          "internalType": "address",
          "name": "previousOwner",
          "type": "address"
        },
        {
          "indexed": true,
          "internalType": "address",
          "name": "newOwner",
          "type": "address"
        }
      ],
      "name": "OwnershipTransferred",
      "type": "event"
    },
    {
      "anonymous": false,
      "inputs": [
        {
          "indexed": true,
          "internalType": "address",
          "name": "from",
          "type": "address"
        },
        {
          "indexed": true,
          "internalType": "address",
          "name": "to",
          "type": "address"
        },
        {
          "indexed": true,
          "internalType": "uint256",
          "name": "tokenId",
          "type": "uint256"
        }
      ],
      "name": "Transfer",
      "type": "event"
    },
    {
      "inputs": [
        {
          "internalType": "address",
          "name": "",
          "type": "address"
        },
        {
          "internalType": "uint256",
          "name": "",
          "type": "uint256"
        }
      ],
      "name": "approve",
      "outputs": [],
      "stateMutability": "view",
      "type": "function"
    },
    {
      "inputs": [
        {
          "internalType": "address",
          "name": "_owner",
          "type": "address"
        }
      ],
      "name": "balanceOf",
      "outputs": [
        {
          "internalType": "uint256",
          "name": "",
          "type": "uint256"
        }
      ],
      "stateMutability": "view",
      "type": "function"
    },
    {
      "inputs": [
        {
          "internalType": "uint256",
          "name": "testerId",
          "type": "uint256"
        }
      ],
      "name": "credentialReceivers",
      "outputs": [
        {
          "internalType": "address[]",
          "name": "",
          "type": "address[]"
        }
      ],
      "stateMutability": "view",
      "type": "function"
    },
    {
      "inputs": [
        {
          "internalType": "uint256",
          "name": "",
          "type": "uint256"
        }
      ],
      "name": "getApproved",
      "outputs": [
        {
          "internalType": "address",
          "name": "",
          "type": "address"
        }
      ],
      "stateMutability": "view",
      "type": "function"
    },
    {
      "inputs": [
        {
          "internalType": "uint256",
          "name": "testerId",
          "type": "uint256"
        }
      ],
      "name": "getCredential",
      "outputs": [
        {
          "internalType": "string",
          "name": "",
          "type": "string"
        }
      ],
      "stateMutability": "view",
      "type": "function"
    },
    {
      "inputs": [
        {
          "internalType": "address",
          "name": "receiver",
          "type": "address"
        },
        {
          "internalType": "uint256",
          "name": "testerId",
          "type": "uint256"
        }
      ],
      "name": "giveCredentials",
      "outputs": [],
      "stateMutability": "nonpayable",
      "type": "function"
    },
    {
      "inputs": [
        {
          "internalType": "address",
          "name": "",
          "type": "address"
        },
        {
          "internalType": "address",
          "name": "",
          "type": "address"
        }
      ],
      "name": "isApprovedForAll",
      "outputs": [
        {
          "internalType": "bool",
          "name": "",
          "type": "bool"
        }
      ],
      "stateMutability": "view",
      "type": "function"
    },
    {
      "inputs": [],
      "name": "name",
      "outputs": [
        {
          "internalType": "string",
          "name": "",
          "type": "string"
        }
      ],
      "stateMutability": "view",
      "type": "function"
    },
    {
      "inputs": [],
      "name": "owner",
      "outputs": [
        {
          "internalType": "address",
          "name": "",
          "type": "address"
        }
      ],
      "stateMutability": "view",
      "type": "function"
    },
    {
      "inputs": [
        {
          "internalType": "uint256",
          "name": "testerId",
          "type": "uint256"
        }
      ],
      "name": "ownerOf",
      "outputs": [
        {
          "internalType": "address",
          "name": "",
          "type": "address"
        }
      ],
      "stateMutability": "view",
      "type": "function"
    },
    {
      "inputs": [
        {
          "internalType": "address",
          "name": "receiver",
          "type": "address"
        }
      ],
      "name": "receivedCredentials",
      "outputs": [
        {
          "internalType": "uint256[]",
          "name": "",
          "type": "uint256[]"
        }
      ],
      "stateMutability": "view",
      "type": "function"
    },
    {
      "inputs": [],
      "name": "renounceOwnership",
      "outputs": [],
      "stateMutability": "nonpayable",
      "type": "function"
    },
    {
      "inputs": [
        {
          "internalType": "address",
          "name": "from",
          "type": "address"
        },
        {
          "internalType": "address",
          "name": "to",
          "type": "address"
        },
        {
          "internalType": "uint256",
          "name": "tokenId",
          "type": "uint256"
        }
      ],
      "name": "safeTransferFrom",
      "outputs": [],
      "stateMutability": "nonpayable",
      "type": "function"
    },
    {
      "inputs": [
        {
          "internalType": "address",
          "name": "",
          "type": "address"
        },
        {
          "internalType": "address",
          "name": "",
          "type": "address"
        },
        {
          "internalType": "uint256",
          "name": "",
          "type": "uint256"
        },
        {
          "internalType": "bytes",
          "name": "",
          "type": "bytes"
        }
      ],
      "name": "safeTransferFrom",
      "outputs": [],
      "stateMutability": "view",
      "type": "function"
    },
    {
      "inputs": [
        {
          "internalType": "address",
          "name": "",
          "type": "address"
        },
        {
          "internalType": "bool",
          "name": "",
          "type": "bool"
        }
      ],
      "name": "setApprovalForAll",
      "outputs": [],
      "stateMutability": "view",
      "type": "function"
    },
    {
      "inputs": [
        {
          "internalType": "bytes4",
          "name": "interfaceId",
          "type": "bytes4"
        }
      ],
      "name": "supportsInterface",
      "outputs": [
        {
          "internalType": "bool",
          "name": "",
          "type": "bool"
        }
      ],
      "stateMutability": "view",
      "type": "function"
    },
    {
      "inputs": [],
      "name": "symbol",
      "outputs": [
        {
          "internalType": "string",
          "name": "",
          "type": "string"
        }
      ],
      "stateMutability": "view",
      "type": "function"
    },
    {
      "inputs": [
        {
          "internalType": "uint256",
          "name": "index",
          "type": "uint256"
        }
      ],
      "name": "tokenByIndex",
      "outputs": [
        {
          "internalType": "uint256",
          "name": "",
          "type": "uint256"
        }
      ],
      "stateMutability": "view",
      "type": "function"
    },
    {
      "inputs": [
        {
          "internalType": "address",
          "name": "_owner",
          "type": "address"
        },
        {
          "internalType": "uint256",
          "name": "index",
          "type": "uint256"
        }
      ],
      "name": "tokenOfOwnerByIndex",
      "outputs": [
        {
          "internalType": "uint256",
          "name": "",
          "type": "uint256"
        }
      ],
      "stateMutability": "view",
      "type": "function"
    },
    {
      "inputs": [
        {
          "internalType": "uint256",
          "name": "testerId",
          "type": "uint256"
        }
      ],
      "name": "tokenURI",
      "outputs": [
        {
          "internalType": "string",
          "name": "",
          "type": "string"
        }
      ],
      "stateMutability": "view",
      "type": "function"
    },
    {
      "inputs": [],
      "name": "totalSupply",
      "outputs": [
        {
          "internalType": "uint256",
          "name": "count",
          "type": "uint256"
        }
      ],
      "stateMutability": "view",
      "type": "function"
    },
    {
      "inputs": [
        {
          "internalType": "address",
          "name": "",
          "type": "address"
        },
        {
          "internalType": "address",
          "name": "",
          "type": "address"
        },
        {
          "internalType": "uint256",
          "name": "",
          "type": "uint256"
        }
      ],
      "name": "transferFrom",
      "outputs": [],
      "stateMutability": "view",
      "type": "function"
    },
    {
      "inputs": [
        {
          "internalType": "address",
          "name": "newOwner",
          "type": "address"
        }
      ],
      "name": "transferOwnership",
      "outputs": [],
      "stateMutability": "nonpayable",
      "type": "function"
    }
  ],
  "bytecode": "0x60806040526040518060400160405280601f81526020017f4251433a2063616e6e6f7420617070726f76652063726564656e7469616c730081525060029080519060200190620000519291906200039f565b506040518060400160405280602081526020017f4251433a2063616e6e6f74207472616e736665722063726564656e7469616c73815250600390805190602001906200009f9291906200039f565b50348015620000ad57600080fd5b50620000ce620000c2620001f960201b60201c565b6200020160201b60201c565b6040518060400160405280601b81526020017f426c6f636b205175616c69666965642043726564656e7469616c730000000000815250600790805190602001906200011b9291906200039f565b506040518060400160405280600381526020017f425143000000000000000000000000000000000000000000000000000000000081525060089080519060200190620001699291906200039f565b5033600460006101000a81548173ffffffffffffffffffffffffffffffffffffffff021916908373ffffffffffffffffffffffffffffffffffffffff160217905550620001c36380ac58cd60e01b620002c760201b60201c565b620001db635b5e139f60e01b620002c760201b60201c565b620001f363780e9d6360e01b620002c760201b60201c565b62000537565b600033905090565b6000600160009054906101000a900473ffffffffffffffffffffffffffffffffffffffff16905081600160006101000a81548173ffffffffffffffffffffffffffffffffffffffff021916908373ffffffffffffffffffffffffffffffffffffffff1602179055508173ffffffffffffffffffffffffffffffffffffffff168173ffffffffffffffffffffffffffffffffffffffff167f8be0079c531659141344cd1fd0a4f28419497f9722a3daafe3b4186f6b6457e060405160405180910390a35050565b63ffffffff60e01b817bffffffffffffffffffffffffffffffffffffffffffffffffffffffff1916141562000333576040517f08c379a00000000000000000000000000000000000000000000000000000000081526004016200032a90620004b0565b60405180910390fd5b6001600080837bffffffffffffffffffffffffffffffffffffffffffffffffffffffff19167bffffffffffffffffffffffffffffffffffffffffffffffffffffffff1916815260200190815260200160002060006101000a81548160ff02191690831515021790555050565b828054620003ad9062000501565b90600052602060002090601f016020900481019282620003d157600085556200041d565b82601f10620003ec57805160ff19168380011785556200041d565b828001600101855582156200041d579182015b828111156200041c578251825591602001919060010190620003ff565b5b5090506200042c919062000430565b5090565b5b808211156200044b57600081600090555060010162000431565b5090565b600082825260208201905092915050565b7f4552433136353a20696e76616c696420696e7465726661636520696400000000600082015250565b600062000498601c836200044f565b9150620004a58262000460565b602082019050919050565b60006020820190508181036000830152620004cb8162000489565b9050919050565b7f4e487b7100000000000000000000000000000000000000000000000000000000600052602260045260246000fd5b600060028204905060018216806200051a57607f821691505b60208210811415620005315762000530620004d2565b5b50919050565b61249e80620005476000396000f3fe608060405234801561001057600080fd5b506004361061014d5760003560e01c80636352211e116100c3578063a22cb4651161007c578063a22cb465146103c4578063b88d4fde146103e0578063c87b56dd146103fc578063e985e9c51461042c578063f2fde38b1461045c578063f34071da146104785761014d565b80636352211e146102ee57806370a082311461031e578063715018a61461034e5780638da5cb5b146103585780638dd18d2d1461037657806395d89b41146103a65761014d565b8063095ea7b311610115578063095ea7b31461021c57806318160ddd1461023857806323b872dd146102565780632f745c591461027257806342842e0e146102a25780634f6ccce7146102be5761014d565b806301ffc9a714610152578063061e4dde14610182578063068fb56c146101b257806306fdde03146101ce578063081812fc146101ec575b600080fd5b61016c60048036038101906101679190611533565b6104a8565b604051610179919061157b565b60405180910390f35b61019c600480360381019061019791906115f4565b61051f565b6040516101a991906116e9565b60405180910390f35b6101cc60048036038101906101c79190611737565b61056f565b005b6101d6610701565b6040516101e39190611810565b60405180910390f35b61020660048036038101906102019190611832565b610793565b604051610213919061186e565b60405180910390f35b61023660048036038101906102319190611737565b61079a565b005b6102406107d8565b60405161024d9190611898565b60405180910390f35b610270600480360381019061026b91906118b3565b610976565b005b61028c60048036038101906102879190611737565b6109b4565b6040516102999190611898565b60405180910390f35b6102bc60048036038101906102b791906118b3565b610a59565b005b6102d860048036038101906102d39190611832565b610a79565b6040516102e59190611898565b60405180910390f35b61030860048036038101906103039190611832565b610b2d565b604051610315919061186e565b60405180910390f35b610338600480360381019061033391906115f4565b610be1565b6040516103459190611898565b60405180910390f35b610356610ca0565b005b610360610cb4565b60405161036d919061186e565b60405180910390f35b610390600480360381019061038b9190611832565b610cde565b60405161039d9190611810565b60405180910390f35b6103ae610e85565b6040516103bb9190611810565b60405180910390f35b6103de60048036038101906103d99190611932565b610f17565b005b6103fa60048036038101906103f59190611aa7565b610f55565b005b61041660048036038101906104119190611832565b610f93565b6040516104239190611810565b60405180910390f35b61044660048036038101906104419190611b2a565b61104c565b604051610453919061157b565b60405180910390f35b610476600480360381019061047191906115f4565b611054565b005b610492600480360381019061048d9190611832565b6110d8565b60405161049f9190611c28565b60405180910390f35b60006104b3826110fc565b806105185750600080837bffffffffffffffffffffffffffffffffffffffffffffffffffffffff19167bffffffffffffffffffffffffffffffffffffffffffffffffffffffff1916815260200190815260200160002060009054906101000a900460ff165b9050919050565b6060610568600560008473ffffffffffffffffffffffffffffffffffffffff1673ffffffffffffffffffffffffffffffffffffffff168152602001908152602001600020611166565b9050919050565b610577611187565b6105c881600560008573ffffffffffffffffffffffffffffffffffffffff1673ffffffffffffffffffffffffffffffffffffffff16815260200190815260200160002061120590919063ffffffff16565b15610608576040517f08c379a00000000000000000000000000000000000000000000000000000000081526004016105ff90611cbc565b60405180910390fd5b61065981600560008573ffffffffffffffffffffffffffffffffffffffff1673ffffffffffffffffffffffffffffffffffffffff16815260200190815260200160002061121f90919063ffffffff16565b5061067f826006600084815260200190815260200160002061123990919063ffffffff16565b50808273ffffffffffffffffffffffffffffffffffffffff16600460009054906101000a900473ffffffffffffffffffffffffffffffffffffffff1673ffffffffffffffffffffffffffffffffffffffff167fddf252ad1be2c89b69c2b068fc378daa952ba7f163c4a11628f55a4df523b3ef60405160405180910390a45050565b60606007805461071090611d0b565b80601f016020809104026020016040519081016040528092919081815260200182805461073c90611d0b565b80156107895780601f1061075e57610100808354040283529160200191610789565b820191906000526020600020905b81548152906001019060200180831161076c57829003601f168201915b5050505050905090565b6000919050565b60026040517f08c379a00000000000000000000000000000000000000000000000000000000081526004016107cf9190611dd2565b60405180910390fd5b600080600460009054906101000a900473ffffffffffffffffffffffffffffffffffffffff1673ffffffffffffffffffffffffffffffffffffffff166318160ddd6040518163ffffffff1660e01b815260040160206040518083038186803b15801561084357600080fd5b505afa158015610857573d6000803e3d6000fd5b505050506040513d601f19601f8201168201806040525081019061087b9190611e09565b905060005b81811015610971576000600460009054906101000a900473ffffffffffffffffffffffffffffffffffffffff1673ffffffffffffffffffffffffffffffffffffffff16634f6ccce7836040518263ffffffff1660e01b81526004016108e59190611898565b60206040518083038186803b1580156108fd57600080fd5b505afa158015610911573d6000803e3d6000fd5b505050506040513d601f19601f820116820180604052508101906109359190611e09565b905061095260066000838152602001908152602001600020611269565b8461095d9190611e65565b9350508061096a90611ebb565b9050610880565b505090565b60036040517f08c379a00000000000000000000000000000000000000000000000000000000081526004016109ab9190611dd2565b60405180910390fd5b60006109bf83610be1565b8210610a00576040517f08c379a00000000000000000000000000000000000000000000000000000000081526004016109f790611f50565b60405180910390fd5b610a5182600560008673ffffffffffffffffffffffffffffffffffffffff1673ffffffffffffffffffffffffffffffffffffffff16815260200190815260200160002061127e90919063ffffffff16565b905092915050565b610a7483838360405180602001604052806000815250610f55565b505050565b6000600460009054906101000a900473ffffffffffffffffffffffffffffffffffffffff1673ffffffffffffffffffffffffffffffffffffffff16634f6ccce7836040518263ffffffff1660e01b8152600401610ad69190611898565b60206040518083038186803b158015610aee57600080fd5b505afa158015610b02573d6000803e3d6000fd5b505050506040513d601f19601f82011682018060405250810190610b269190611e09565b9050919050565b6000600460009054906101000a900473ffffffffffffffffffffffffffffffffffffffff1673ffffffffffffffffffffffffffffffffffffffff16636352211e836040518263ffffffff1660e01b8152600401610b8a9190611898565b60206040518083038186803b158015610ba257600080fd5b505afa158015610bb6573d6000803e3d6000fd5b505050506040513d601f19601f82011682018060405250810190610bda9190611f85565b9050919050565b60008073ffffffffffffffffffffffffffffffffffffffff168273ffffffffffffffffffffffffffffffffffffffff161415610c52576040517f08c379a0000000000000000000000000000000000000000000000000000000008152600401610c4990612024565b60405180910390fd5b610c99600560008473ffffffffffffffffffffffffffffffffffffffff1673ffffffffffffffffffffffffffffffffffffffff168152602001908152602001600020611298565b9050919050565b610ca8611187565b610cb260006112ad565b565b6000600160009054906101000a900473ffffffffffffffffffffffffffffffffffffffff16905090565b6060600460009054906101000a900473ffffffffffffffffffffffffffffffffffffffff1673ffffffffffffffffffffffffffffffffffffffff166394a75e08836040518263ffffffff1660e01b8152600401610d3b9190611898565b60206040518083038186803b158015610d5357600080fd5b505afa158015610d67573d6000803e3d6000fd5b505050506040513d601f19601f82011682018060405250810190610d8b9190612059565b610dca576040517f08c379a0000000000000000000000000000000000000000000000000000000008152600401610dc1906120d2565b60405180910390fd5b600460009054906101000a900473ffffffffffffffffffffffffffffffffffffffff1673ffffffffffffffffffffffffffffffffffffffff166388b6f5ee836040518263ffffffff1660e01b8152600401610e259190611898565b60006040518083038186803b158015610e3d57600080fd5b505afa158015610e51573d6000803e3d6000fd5b505050506040513d6000823e3d601f19601f82011682018060405250810190610e7a91906122a9565b60c001519050919050565b606060088054610e9490611d0b565b80601f0160208091040260200160405190810160405280929190818152602001828054610ec090611d0b565b8015610f0d5780601f10610ee257610100808354040283529160200191610f0d565b820191906000526020600020905b815481529060010190602001808311610ef057829003601f168201915b5050505050905090565b60026040517f08c379a0000000000000000000000000000000000000000000000000000000008152600401610f4c9190611dd2565b60405180910390fd5b60036040517f08c379a0000000000000000000000000000000000000000000000000000000008152600401610f8a9190611dd2565b60405180910390fd5b6060600460009054906101000a900473ffffffffffffffffffffffffffffffffffffffff1673ffffffffffffffffffffffffffffffffffffffff1663c87b56dd836040518263ffffffff1660e01b8152600401610ff09190611898565b60006040518083038186803b15801561100857600080fd5b505afa15801561101c573d6000803e3d6000fd5b505050506040513d6000823e3d601f19601f8201168201806040525081019061104591906122f2565b9050919050565b600092915050565b61105c611187565b600073ffffffffffffffffffffffffffffffffffffffff168173ffffffffffffffffffffffffffffffffffffffff1614156110cc576040517f08c379a00000000000000000000000000000000000000000000000000000000081526004016110c3906123ad565b60405180910390fd5b6110d5816112ad565b50565b60606110f560066000848152602001908152602001600020611373565b9050919050565b60007f01ffc9a7000000000000000000000000000000000000000000000000000000007bffffffffffffffffffffffffffffffffffffffffffffffffffffffff1916827bffffffffffffffffffffffffffffffffffffffffffffffffffffffff1916149050919050565b6060600061117683600001611394565b905060608190508092505050919050565b61118f6113f0565b73ffffffffffffffffffffffffffffffffffffffff166111ad610cb4565b73ffffffffffffffffffffffffffffffffffffffff1614611203576040517f08c379a00000000000000000000000000000000000000000000000000000000081526004016111fa90612419565b60405180910390fd5b565b6000611217836000018360001b6113f8565b905092915050565b6000611231836000018360001b61141b565b905092915050565b6000611261836000018373ffffffffffffffffffffffffffffffffffffffff1660001b61141b565b905092915050565b60006112778260000161148b565b9050919050565b600061128d836000018361149c565b60001c905092915050565b60006112a68260000161148b565b9050919050565b6000600160009054906101000a900473ffffffffffffffffffffffffffffffffffffffff16905081600160006101000a81548173ffffffffffffffffffffffffffffffffffffffff021916908373ffffffffffffffffffffffffffffffffffffffff1602179055508173ffffffffffffffffffffffffffffffffffffffff168173ffffffffffffffffffffffffffffffffffffffff167f8be0079c531659141344cd1fd0a4f28419497f9722a3daafe3b4186f6b6457e060405160405180910390a35050565b6060600061138383600001611394565b905060608190508092505050919050565b6060816000018054806020026020016040519081016040528092919081815260200182805480156113e457602002820191906000526020600020905b8154815260200190600101908083116113d0575b50505050509050919050565b600033905090565b600080836001016000848152602001908152602001600020541415905092915050565b600061142783836113f8565b611480578260000182908060018154018082558091505060019003906000526020600020016000909190919091505582600001805490508360010160008481526020019081526020016000208190555060019050611485565b600090505b92915050565b600081600001805490509050919050565b60008260000182815481106114b4576114b3612439565b5b9060005260206000200154905092915050565b6000604051905090565b600080fd5b600080fd5b60007fffffffff0000000000000000000000000000000000000000000000000000000082169050919050565b611510816114db565b811461151b57600080fd5b50565b60008135905061152d81611507565b92915050565b600060208284031215611549576115486114d1565b5b60006115578482850161151e565b91505092915050565b60008115159050919050565b61157581611560565b82525050565b6000602082019050611590600083018461156c565b92915050565b600073ffffffffffffffffffffffffffffffffffffffff82169050919050565b60006115c182611596565b9050919050565b6115d1816115b6565b81146115dc57600080fd5b50565b6000813590506115ee816115c8565b92915050565b60006020828403121561160a576116096114d1565b5b6000611618848285016115df565b91505092915050565b600081519050919050565b600082825260208201905092915050565b6000819050602082019050919050565b6000819050919050565b6116608161164d565b82525050565b60006116728383611657565b60208301905092915050565b6000602082019050919050565b600061169682611621565b6116a0818561162c565b93506116ab8361163d565b8060005b838110156116dc5781516116c38882611666565b97506116ce8361167e565b9250506001810190506116af565b5085935050505092915050565b60006020820190508181036000830152611703818461168b565b905092915050565b6117148161164d565b811461171f57600080fd5b50565b6000813590506117318161170b565b92915050565b6000806040838503121561174e5761174d6114d1565b5b600061175c858286016115df565b925050602061176d85828601611722565b9150509250929050565b600081519050919050565b600082825260208201905092915050565b60005b838110156117b1578082015181840152602081019050611796565b838111156117c0576000848401525b50505050565b6000601f19601f8301169050919050565b60006117e282611777565b6117ec8185611782565b93506117fc818560208601611793565b611805816117c6565b840191505092915050565b6000602082019050818103600083015261182a81846117d7565b905092915050565b600060208284031215611848576118476114d1565b5b600061185684828501611722565b91505092915050565b611868816115b6565b82525050565b6000602082019050611883600083018461185f565b92915050565b6118928161164d565b82525050565b60006020820190506118ad6000830184611889565b92915050565b6000806000606084860312156118cc576118cb6114d1565b5b60006118da868287016115df565b93505060206118eb868287016115df565b92505060406118fc86828701611722565b9150509250925092565b61190f81611560565b811461191a57600080fd5b50565b60008135905061192c81611906565b92915050565b60008060408385031215611949576119486114d1565b5b6000611957858286016115df565b92505060206119688582860161191d565b9150509250929050565b600080fd5b600080fd5b7f4e487b7100000000000000000000000000000000000000000000000000000000600052604160045260246000fd5b6119b4826117c6565b810181811067ffffffffffffffff821117156119d3576119d261197c565b5b80604052505050565b60006119e66114c7565b90506119f282826119ab565b919050565b600067ffffffffffffffff821115611a1257611a1161197c565b5b611a1b826117c6565b9050602081019050919050565b82818337600083830152505050565b6000611a4a611a45846119f7565b6119dc565b905082815260208101848484011115611a6657611a65611977565b5b611a71848285611a28565b509392505050565b600082601f830112611a8e57611a8d611972565b5b8135611a9e848260208601611a37565b91505092915050565b60008060008060808587031215611ac157611ac06114d1565b5b6000611acf878288016115df565b9450506020611ae0878288016115df565b9350506040611af187828801611722565b925050606085013567ffffffffffffffff811115611b1257611b116114d6565b5b611b1e87828801611a79565b91505092959194509250565b60008060408385031215611b4157611b406114d1565b5b6000611b4f858286016115df565b9250506020611b60858286016115df565b9150509250929050565b600081519050919050565b600082825260208201905092915050565b6000819050602082019050919050565b611b9f816115b6565b82525050565b6000611bb18383611b96565b60208301905092915050565b6000602082019050919050565b6000611bd582611b6a565b611bdf8185611b75565b9350611bea83611b86565b8060005b83811015611c1b578151611c028882611ba5565b9750611c0d83611bbd565b925050600181019050611bee565b5085935050505092915050565b60006020820190508181036000830152611c428184611bca565b905092915050565b7f536f6c76657220616c7265616479206761696e65642063726564656e7469616c60008201527f7300000000000000000000000000000000000000000000000000000000000000602082015250565b6000611ca6602183611782565b9150611cb182611c4a565b604082019050919050565b60006020820190508181036000830152611cd581611c99565b9050919050565b7f4e487b7100000000000000000000000000000000000000000000000000000000600052602260045260246000fd5b60006002820490506001821680611d2357607f821691505b60208210811415611d3757611d36611cdc565b5b50919050565b60008190508160005260206000209050919050565b60008154611d5f81611d0b565b611d698186611782565b94506001821660008114611d845760018114611d9657611dc9565b60ff1983168652602086019350611dc9565b611d9f85611d3d565b60005b83811015611dc157815481890152600182019150602081019050611da2565b808801955050505b50505092915050565b60006020820190508181036000830152611dec8184611d52565b905092915050565b600081519050611e038161170b565b92915050565b600060208284031215611e1f57611e1e6114d1565b5b6000611e2d84828501611df4565b91505092915050565b7f4e487b7100000000000000000000000000000000000000000000000000000000600052601160045260246000fd5b6000611e708261164d565b9150611e7b8361164d565b9250827fffffffffffffffffffffffffffffffffffffffffffffffffffffffffffffffff03821115611eb057611eaf611e36565b5b828201905092915050565b6000611ec68261164d565b91507fffffffffffffffffffffffffffffffffffffffffffffffffffffffffffffffff821415611ef957611ef8611e36565b5b600182019050919050565b7f496e646578206f7574206f6620626f756e647300000000000000000000000000600082015250565b6000611f3a601383611782565b9150611f4582611f04565b602082019050919050565b60006020820190508181036000830152611f6981611f2d565b9050919050565b600081519050611f7f816115c8565b92915050565b600060208284031215611f9b57611f9a6114d1565b5b6000611fa984828501611f70565b91505092915050565b7f4552433732313a2062616c616e636520717565727920666f7220746865207a6560008201527f726f206164647265737300000000000000000000000000000000000000000000602082015250565b600061200e602a83611782565b915061201982611fb2565b604082019050919050565b6000602082019050818103600083015261203d81612001565b9050919050565b60008151905061205381611906565b92915050565b60006020828403121561206f5761206e6114d1565b5b600061207d84828501612044565b91505092915050565b7f54657374657220646f6573206e6f742065786973740000000000000000000000600082015250565b60006120bc601583611782565b91506120c782612086565b602082019050919050565b600060208201905081810360008301526120eb816120af565b9050919050565b600080fd5b600080fd5b600063ffffffff82169050919050565b612115816120fc565b811461212057600080fd5b50565b6000815190506121328161210c565b92915050565b600067ffffffffffffffff8211156121535761215261197c565b5b61215c826117c6565b9050602081019050919050565b600061217c61217784612138565b6119dc565b90508281526020810184848401111561219857612197611977565b5b6121a3848285611793565b509392505050565b600082601f8301126121c0576121bf611972565b5b81516121d0848260208601612169565b91505092915050565b600060e082840312156121ef576121ee6120f2565b5b6121f960e06119dc565b9050600061220984828501611df4565b600083015250602061221d84828501611df4565b602083015250604061223184828501612123565b604083015250606061224584828501612123565b606083015250608061225984828501612123565b60808301525060a061226d84828501611f70565b60a08301525060c082015167ffffffffffffffff811115612291576122906120f7565b5b61229d848285016121ab565b60c08301525092915050565b6000602082840312156122bf576122be6114d1565b5b600082015167ffffffffffffffff8111156122dd576122dc6114d6565b5b6122e9848285016121d9565b91505092915050565b600060208284031215612308576123076114d1565b5b600082015167ffffffffffffffff811115612326576123256114d6565b5b612332848285016121ab565b91505092915050565b7f4f776e61626c653a206e6577206f776e657220697320746865207a65726f206160008201527f6464726573730000000000000000000000000000000000000000000000000000602082015250565b6000612397602683611782565b91506123a28261233b565b604082019050919050565b600060208201905081810360008301526123c68161238a565b9050919050565b7f4f776e61626c653a2063616c6c6572206973206e6f7420746865206f776e6572600082015250565b6000612403602083611782565b915061240e826123cd565b602082019050919050565b60006020820190508181036000830152612432816123f6565b9050919050565b7f4e487b7100000000000000000000000000000000000000000000000000000000600052603260045260246000fdfea2646970667358221220f71862144d4cec8ed3ed11e5cc9654de1f31cf236def9a05eb8e00572186cf9764736f6c63430008090033",
  "linkReferences": {},
  "deployedLinkReferences": {}
}