{
  "_format": "hh-sol-artifact-1",
  "contractName": "TesterCreator",
  "sourceName": "contracts/TesterCreator.sol",
  "abi": [
    {
      "inputs": [
        {
          "internalType": "address",
          "name": "_poseidonHasher",
          "type": "address"
        }
      ],
      "stateMutability": "nonpayable",
      "type": "constructor"
    },
    {
      "anonymous": false,
      "inputs": [
        {
          "indexed": true,
          "internalType": "address",
          "name": "owner",
          "type": "address"
        },
        {
          "indexed": true,
          "internalType": "address",
          "name": "approved",
          "type": "address"
        },
        {
          "indexed": true,
          "internalType": "uint256",
          "name": "tokenId",
          "type": "uint256"
        }
      ],
      "name": "Approval",
      "type": "event"
    },
    {
      "anonymous": false,
      "inputs": [
        {
          "indexed": true,
          "internalType": "address",
          "name": "owner",
          "type": "address"
        },
        {
          "indexed": true,
          "internalType": "address",
          "name": "operator",
          "type": "address"
        },
        {
          "indexed": false,
          "internalType": "bool",
          "name": "approved",
          "type": "bool"
        }
      ],
      "name": "ApprovalForAll",
      "type": "event"
    },
    {
      "anonymous": false,
      "inputs": [
        {
          "indexed": true,
          "internalType": "address",
          "name": "from",
          "type": "address"
        },
        {
          "indexed": true,
          "internalType": "address",
          "name": "to",
          "type": "address"
        },
        {
          "indexed": true,
          "internalType": "uint256",
          "name": "tokenId",
          "type": "uint256"
        }
      ],
      "name": "Transfer",
      "type": "event"
    },
    {
      "inputs": [
        {
          "internalType": "address",
          "name": "",
          "type": "address"
        },
        {
          "internalType": "uint256",
          "name": "",
          "type": "uint256"
        }
      ],
      "name": "approve",
      "outputs": [],
      "stateMutability": "view",
      "type": "function"
    },
    {
      "inputs": [
        {
          "internalType": "address",
          "name": "owner",
          "type": "address"
        }
      ],
      "name": "balanceOf",
      "outputs": [
        {
          "internalType": "uint256",
          "name": "",
          "type": "uint256"
        }
      ],
      "stateMutability": "view",
      "type": "function"
    },
    {
      "inputs": [
        {
          "internalType": "string",
          "name": "_testerURI",
          "type": "string"
        },
        {
          "internalType": "uint256",
          "name": "_solutionHash",
          "type": "uint256"
        },
        {
          "internalType": "uint32",
          "name": "_timeLimit",
          "type": "uint32"
        },
        {
          "internalType": "uint32",
          "name": "_credentialLimit",
          "type": "uint32"
        },
        {
          "internalType": "address",
          "name": "_requiredPass",
          "type": "address"
        },
        {
          "internalType": "string",
          "name": "_credentialGained",
          "type": "string"
        }
      ],
      "name": "createTester",
      "outputs": [],
      "stateMutability": "payable",
      "type": "function"
    },
    {
      "inputs": [],
      "name": "credentialsContract",
      "outputs": [
        {
          "internalType": "contract Credentials",
          "name": "",
          "type": "address"
        }
      ],
      "stateMutability": "view",
      "type": "function"
    },
    {
      "inputs": [
        {
          "internalType": "uint256",
          "name": "testerId",
          "type": "uint256"
        }
      ],
      "name": "deleteTester",
      "outputs": [],
      "stateMutability": "nonpayable",
      "type": "function"
    },
    {
      "inputs": [
        {
          "internalType": "uint256",
          "name": "",
          "type": "uint256"
        }
      ],
      "name": "getApproved",
      "outputs": [
        {
          "internalType": "address",
          "name": "",
          "type": "address"
        }
      ],
      "stateMutability": "view",
      "type": "function"
    },
    {
      "inputs": [
        {
          "internalType": "uint256",
          "name": "testerId",
          "type": "uint256"
        }
      ],
      "name": "getTester",
      "outputs": [
        {
          "components": [
            {
              "internalType": "uint256",
              "name": "solutionHash",
              "type": "uint256"
            },
            {
              "internalType": "uint256",
              "name": "prize",
              "type": "uint256"
            },
            {
              "internalType": "uint32",
              "name": "solvers",
              "type": "uint32"
            },
            {
              "internalType": "uint32",
              "name": "timeLimit",
              "type": "uint32"
            },
            {
              "internalType": "uint32",
              "name": "credentialLimit",
              "type": "uint32"
            },
            {
              "internalType": "address",
              "name": "requiredPass",
              "type": "address"
            },
            {
              "internalType": "string",
              "name": "credentialsGained",
              "type": "string"
            }
          ],
          "internalType": "struct TesterCreator.OnChainTester",
          "name": "",
          "type": "tuple"
        }
      ],
      "stateMutability": "view",
      "type": "function"
    },
    {
      "inputs": [
        {
          "internalType": "address",
          "name": "",
          "type": "address"
        },
        {
          "internalType": "address",
          "name": "",
          "type": "address"
        }
      ],
      "name": "isApprovedForAll",
      "outputs": [
        {
          "internalType": "bool",
          "name": "",
          "type": "bool"
        }
      ],
      "stateMutability": "view",
      "type": "function"
    },
    {
      "inputs": [],
      "name": "name",
      "outputs": [
        {
          "internalType": "string",
          "name": "",
          "type": "string"
        }
      ],
      "stateMutability": "view",
      "type": "function"
    },
    {
      "inputs": [
        {
          "internalType": "uint256",
          "name": "tokenId",
          "type": "uint256"
        }
      ],
      "name": "ownerOf",
      "outputs": [
        {
          "internalType": "address",
          "name": "",
          "type": "address"
        }
      ],
      "stateMutability": "view",
      "type": "function"
    },
    {
      "inputs": [],
      "name": "poseidonHasher",
      "outputs": [
        {
          "internalType": "contract Poseidon",
          "name": "",
          "type": "address"
        }
      ],
      "stateMutability": "view",
      "type": "function"
    },
    {
      "inputs": [
        {
          "internalType": "address",
          "name": "from",
          "type": "address"
        },
        {
          "internalType": "address",
          "name": "to",
          "type": "address"
        },
        {
          "internalType": "uint256",
          "name": "tokenId",
          "type": "uint256"
        }
      ],
      "name": "safeTransferFrom",
      "outputs": [],
      "stateMutability": "nonpayable",
      "type": "function"
    },
    {
      "inputs": [
        {
          "internalType": "address",
          "name": "",
          "type": "address"
        },
        {
          "internalType": "address",
          "name": "",
          "type": "address"
        },
        {
          "internalType": "uint256",
          "name": "",
          "type": "uint256"
        },
        {
          "internalType": "bytes",
          "name": "",
          "type": "bytes"
        }
      ],
      "name": "safeTransferFrom",
      "outputs": [],
      "stateMutability": "view",
      "type": "function"
    },
    {
      "inputs": [
        {
          "internalType": "address",
          "name": "",
          "type": "address"
        },
        {
          "internalType": "bool",
          "name": "",
          "type": "bool"
        }
      ],
      "name": "setApprovalForAll",
      "outputs": [],
      "stateMutability": "view",
      "type": "function"
    },
    {
      "inputs": [
        {
          "internalType": "uint256",
          "name": "testerId",
          "type": "uint256"
        },
        {
          "internalType": "uint256[2]",
          "name": "a",
          "type": "uint256[2]"
        },
        {
          "internalType": "uint256[2][2]",
          "name": "b",
          "type": "uint256[2][2]"
        },
        {
          "internalType": "uint256[2]",
          "name": "c",
          "type": "uint256[2]"
        },
        {
          "internalType": "uint256[2]",
          "name": "input",
          "type": "uint256[2]"
        }
      ],
      "name": "solveTester",
      "outputs": [
        {
          "internalType": "bool",
          "name": "verifiedSolution",
          "type": "bool"
        }
      ],
      "stateMutability": "nonpayable",
      "type": "function"
    },
    {
      "inputs": [
        {
          "internalType": "bytes4",
          "name": "interfaceId",
          "type": "bytes4"
        }
      ],
      "name": "supportsInterface",
      "outputs": [
        {
          "internalType": "bool",
          "name": "",
          "type": "bool"
        }
      ],
      "stateMutability": "view",
      "type": "function"
    },
    {
      "inputs": [],
      "name": "symbol",
      "outputs": [
        {
          "internalType": "string",
          "name": "",
          "type": "string"
        }
      ],
      "stateMutability": "view",
      "type": "function"
    },
    {
      "inputs": [
        {
          "internalType": "uint256",
          "name": "testerId",
          "type": "uint256"
        }
      ],
      "name": "testerExists",
      "outputs": [
        {
          "internalType": "bool",
          "name": "",
          "type": "bool"
        }
      ],
      "stateMutability": "view",
      "type": "function"
    },
    {
      "inputs": [
        {
          "internalType": "uint256",
          "name": "index",
          "type": "uint256"
        }
      ],
      "name": "tokenByIndex",
      "outputs": [
        {
          "internalType": "uint256",
          "name": "",
          "type": "uint256"
        }
      ],
      "stateMutability": "view",
      "type": "function"
    },
    {
      "inputs": [
        {
          "internalType": "address",
          "name": "_owner",
          "type": "address"
        },
        {
          "internalType": "uint256",
          "name": "index",
          "type": "uint256"
        }
      ],
      "name": "tokenOfOwnerByIndex",
      "outputs": [
        {
          "internalType": "uint256",
          "name": "",
          "type": "uint256"
        }
      ],
      "stateMutability": "view",
      "type": "function"
    },
    {
      "inputs": [
        {
          "internalType": "uint256",
          "name": "testerId",
          "type": "uint256"
        }
      ],
      "name": "tokenURI",
      "outputs": [
        {
          "internalType": "string",
          "name": "",
          "type": "string"
        }
      ],
      "stateMutability": "view",
      "type": "function"
    },
    {
      "inputs": [],
      "name": "totalSupply",
      "outputs": [
        {
          "internalType": "uint256",
          "name": "count",
          "type": "uint256"
        }
      ],
      "stateMutability": "view",
      "type": "function"
    },
    {
      "inputs": [
        {
          "internalType": "address",
          "name": "",
          "type": "address"
        },
        {
          "internalType": "address",
          "name": "",
          "type": "address"
        },
        {
          "internalType": "uint256",
          "name": "",
          "type": "uint256"
        }
      ],
      "name": "transferFrom",
      "outputs": [],
      "stateMutability": "view",
      "type": "function"
    },
    {
      "inputs": [
        {
          "internalType": "uint256",
          "name": "",
          "type": "uint256"
        }
      ],
      "name": "usedSalts",
      "outputs": [
        {
          "internalType": "bool",
          "name": "",
          "type": "bool"
        }
      ],
      "stateMutability": "view",
      "type": "function"
    }
  ],
  "bytecode": "0x60806040526040518060400160405280601b81526020017f4251543a2063616e6e6f7420617070726f76652074657374657273000000000081525060039080519060200190620000519291906200034c565b506040518060400160405280601c81526020017f4251543a2063616e6e6f74207472616e73666572207465737465727300000000815250600490805190602001906200009f9291906200034c565b50348015620000ad57600080fd5b5060405162007de438038062007de48339818101604052810190620000d3919062000474565b80806000806101000a81548173ffffffffffffffffffffffffffffffffffffffff021916908373ffffffffffffffffffffffffffffffffffffffff1602179055505060016002819055506040518060400160405280601781526020017f426c6f636b205175616c69666965642054657374657273000000000000000000815250600b90805190602001906200016a9291906200034c565b506040518060400160405280600381526020017f4251540000000000000000000000000000000000000000000000000000000000815250600c9080519060200190620001b89291906200034c565b50604051620001c790620003dd565b604051809103906000f080158015620001e4573d6000803e3d6000fd5b50600560006101000a81548173ffffffffffffffffffffffffffffffffffffffff021916908373ffffffffffffffffffffffffffffffffffffffff1602179055506200023d6380ac58cd60e01b6200027460201b60201c565b62000255635b5e139f60e01b6200027460201b60201c565b6200026d63780e9d6360e01b6200027460201b60201c565b506200058e565b63ffffffff60e01b817bffffffffffffffffffffffffffffffffffffffffffffffffffffffff19161415620002e0576040517f08c379a0000000000000000000000000000000000000000000000000000000008152600401620002d79062000507565b60405180910390fd5b6001806000837bffffffffffffffffffffffffffffffffffffffffffffffffffffffff19167bffffffffffffffffffffffffffffffffffffffffffffffffffffffff1916815260200190815260200160002060006101000a81548160ff02191690831515021790555050565b8280546200035a9062000558565b90600052602060002090601f0160209004810192826200037e5760008555620003ca565b82601f106200039957805160ff1916838001178555620003ca565b82800160010185558215620003ca579182015b82811115620003c9578251825591602001919060010190620003ac565b5b509050620003d99190620003eb565b5090565b6129e580620053ff83390190565b5b8082111562000406576000816000905550600101620003ec565b5090565b600080fd5b600073ffffffffffffffffffffffffffffffffffffffff82169050919050565b60006200043c826200040f565b9050919050565b6200044e816200042f565b81146200045a57600080fd5b50565b6000815190506200046e8162000443565b92915050565b6000602082840312156200048d576200048c6200040a565b5b60006200049d848285016200045d565b91505092915050565b600082825260208201905092915050565b7f4552433136353a20696e76616c696420696e7465726661636520696400000000600082015250565b6000620004ef601c83620004a6565b9150620004fc82620004b7565b602082019050919050565b600060208201905081810360008301526200052281620004e0565b9050919050565b7f4e487b7100000000000000000000000000000000000000000000000000000000600052602260045260246000fd5b600060028204905060018216806200057157607f821691505b6020821081141562000588576200058762000529565b5b50919050565b614e61806200059e6000396000f3fe60806040526004361061014b5760003560e01c80636352211e116100b6578063b3683cc51161006f578063b3683cc5146104ee578063b88d4fde1461050a578063c775a2e414610533578063c87b56dd14610570578063ce421e49146105ad578063e985e9c5146105d85761014b565b80636352211e146103a657806370a08231146103e357806388b6f5ee1461042057806394a75e081461045d57806395d89b411461049a578063a22cb465146104c55761014b565b806323b872dd1161010857806323b872dd146102725780632f745c591461029b578063331b6ab3146102d8578063375fa27e1461030357806342842e0e146103405780634f6ccce7146103695761014b565b806301ffc9a71461015057806306fdde031461018d578063081812fc146101b8578063095ea7b3146101f55780630a455cfa1461021e57806318160ddd14610247575b600080fd5b34801561015c57600080fd5b5061017760048036038101906101729190613715565b610615565b604051610184919061375d565b60405180910390f35b34801561019957600080fd5b506101a261068d565b6040516101af9190613811565b60405180910390f35b3480156101c457600080fd5b506101df60048036038101906101da9190613869565b61071f565b6040516101ec91906138d7565b60405180910390f35b34801561020157600080fd5b5061021c6004803603810190610217919061391e565b610726565b005b34801561022a57600080fd5b5061024560048036038101906102409190613869565b610764565b005b34801561025357600080fd5b5061025c610a54565b604051610269919061396d565b60405180910390f35b34801561027e57600080fd5b5061029960048036038101906102949190613988565b610a65565b005b3480156102a757600080fd5b506102c260048036038101906102bd919061391e565b610aa3565b6040516102cf919061396d565b60405180910390f35b3480156102e457600080fd5b506102ed610b48565b6040516102fa9190613a3a565b60405180910390f35b34801561030f57600080fd5b5061032a60048036038101906103259190613a9e565b610b6c565b604051610337919061375d565b60405180910390f35b34801561034c57600080fd5b5061036760048036038101906103629190613988565b6111e0565b005b34801561037557600080fd5b50610390600480360381019061038b9190613869565b611200565b60405161039d919061396d565b60405180910390f35b3480156103b257600080fd5b506103cd60048036038101906103c89190613869565b61126d565b6040516103da91906138d7565b60405180910390f35b3480156103ef57600080fd5b5061040a60048036038101906104059190613b1b565b6112a4565b604051610417919061396d565b60405180910390f35b34801561042c57600080fd5b5061044760048036038101906104429190613869565b611363565b6040516104549190613c6b565b60405180910390f35b34801561046957600080fd5b50610484600480360381019061047f9190613869565b611546565b604051610491919061375d565b60405180910390f35b3480156104a657600080fd5b506104af611558565b6040516104bc9190613811565b60405180910390f35b3480156104d157600080fd5b506104ec60048036038101906104e79190613cb9565b6115ea565b005b61050860048036038101906105039190613e5a565b611628565b005b34801561051657600080fd5b50610531600480360381019061052c9190613fc0565b611a04565b005b34801561053f57600080fd5b5061055a60048036038101906105559190613869565b611a42565b604051610567919061375d565b60405180910390f35b34801561057c57600080fd5b5061059760048036038101906105929190613869565b611a62565b6040516105a49190613811565b60405180910390f35b3480156105b957600080fd5b506105c2611b4f565b6040516105cf9190614064565b60405180910390f35b3480156105e457600080fd5b506105ff60048036038101906105fa919061407f565b611b75565b60405161060c919061375d565b60405180910390f35b600061062082611b7d565b80610686575060016000837bffffffffffffffffffffffffffffffffffffffffffffffffffffffff19167bffffffffffffffffffffffffffffffffffffffffffffffffffffffff1916815260200190815260200160002060009054906101000a900460ff165b9050919050565b6060600b805461069c906140ee565b80601f01602080910402602001604051908101604052809291908181526020018280546106c8906140ee565b80156107155780601f106106ea57610100808354040283529160200191610715565b820191906000526020600020905b8154815290600101906020018083116106f857829003601f168201915b5050505050905090565b6000919050565b60036040517f08c379a000000000000000000000000000000000000000000000000000000000815260040161075b91906141b5565b60405180910390fd5b61076d81611be7565b6107ac576040517f08c379a00000000000000000000000000000000000000000000000000000000081526004016107a390614223565b60405180910390fd5b3373ffffffffffffffffffffffffffffffffffffffff166107cc8261126d565b73ffffffffffffffffffffffffffffffffffffffff1614610822576040517f08c379a00000000000000000000000000000000000000000000000000000000081526004016108199061428f565b60405180910390fd5b61087381600660003373ffffffffffffffffffffffffffffffffffffffff1673ffffffffffffffffffffffffffffffffffffffff168152602001908152602001600020611c0490919063ffffffff16565b50610888816007611c1e90919063ffffffff16565b50600080600d600084815260200190815260200160002060020160009054906101000a900463ffffffff1663ffffffff16146108c55760016108c8565b60005b90506000600d6000848152602001908152602001600020600101549050600d600084815260200190815260200160002060008082016000905560018201600090556002820160006101000a81549063ffffffff02191690556002820160046101000a81549063ffffffff02191690556002820160086101000a81549063ffffffff021916905560028201600c6101000a81549073ffffffffffffffffffffffffffffffffffffffff0219169055600382016000610985919061341f565b5050600e600084815260200190815260200160002060006109a6919061341f565b816109f3573373ffffffffffffffffffffffffffffffffffffffff166108fc829081150290604051600060405180830381858888f193505050501580156109f1573d6000803e3d6000fd5b505b82600073ffffffffffffffffffffffffffffffffffffffff163373ffffffffffffffffffffffffffffffffffffffff167fddf252ad1be2c89b69c2b068fc378daa952ba7f163c4a11628f55a4df523b3ef60405160405180910390a4505050565b6000610a606007611c38565b905090565b60046040517f08c379a0000000000000000000000000000000000000000000000000000000008152600401610a9a91906141b5565b60405180910390fd5b6000610aae836112a4565b8210610aef576040517f08c379a0000000000000000000000000000000000000000000000000000000008152600401610ae6906142fb565b60405180910390fd5b610b4082600660008673ffffffffffffffffffffffffffffffffffffffff1673ffffffffffffffffffffffffffffffffffffffff168152602001908152602001600020611c4d90919063ffffffff16565b905092915050565b60008054906101000a900473ffffffffffffffffffffffffffffffffffffffff1681565b6000600280541415610bb3576040517f08c379a0000000000000000000000000000000000000000000000000000000008152600401610baa90614367565b60405180910390fd5b60028081905550610bc386611be7565b610c02576040517f08c379a0000000000000000000000000000000000000000000000000000000008152600401610bf9906143d3565b60405180910390fd5b600f600083600160028110610c1a57610c196143f3565b5b6020020135815260200190815260200160002060009054906101000a900460ff1615610c7b576040517f08c379a0000000000000000000000000000000000000000000000000000000008152600401610c729061446e565b60405180910390fd5b6000600d60008881526020019081526020016000206040518060e001604052908160008201548152602001600182015481526020016002820160009054906101000a900463ffffffff1663ffffffff1663ffffffff1681526020016002820160049054906101000a900463ffffffff1663ffffffff1663ffffffff1681526020016002820160089054906101000a900463ffffffff1663ffffffff1663ffffffff16815260200160028201600c9054906101000a900473ffffffffffffffffffffffffffffffffffffffff1673ffffffffffffffffffffffffffffffffffffffff1673ffffffffffffffffffffffffffffffffffffffff168152602001600382018054610d87906140ee565b80601f0160208091040260200160405190810160405280929190818152602001828054610db3906140ee565b8015610e005780601f10610dd557610100808354040283529160200191610e00565b820191906000526020600020905b815481529060010190602001808311610de357829003601f168201915b5050505050815250509050610e148761126d565b73ffffffffffffffffffffffffffffffffffffffff163373ffffffffffffffffffffffffffffffffffffffff161415610e82576040517f08c379a0000000000000000000000000000000000000000000000000000000008152600401610e79906144da565b60405180910390fd5b806080015163ffffffff16816040015163ffffffff1610610ed8576040517f08c379a0000000000000000000000000000000000000000000000000000000008152600401610ecf9061456c565b60405180910390fd5b806060015163ffffffff16421115610f25576040517f08c379a0000000000000000000000000000000000000000000000000000000008152600401610f1c906145fe565b60405180910390fd5b600073ffffffffffffffffffffffffffffffffffffffff168160a0015173ffffffffffffffffffffffffffffffffffffffff161461102d5760008160a0015173ffffffffffffffffffffffffffffffffffffffff166370a08231336040518263ffffffff1660e01b8152600401610f9c91906138d7565b60206040518083038186803b158015610fb457600080fd5b505afa158015610fc8573d6000803e3d6000fd5b505050506040513d601f19601f82011682018060405250810190610fec9190614633565b1161102c576040517f08c379a0000000000000000000000000000000000000000000000000000000008152600401611023906146d2565b60405180910390fd5b5b61103e868686868560000151611c67565b9150811561118a576000816040015163ffffffff1614156110a5573373ffffffffffffffffffffffffffffffffffffffff166108fc82602001519081150290604051600060405180830381858888f193505050501580156110a3573d6000803e3d6000fd5b505b600560009054906101000a900473ffffffffffffffffffffffffffffffffffffffff1673ffffffffffffffffffffffffffffffffffffffff1663068fb56c33896040518363ffffffff1660e01b81526004016111029291906146f2565b600060405180830381600087803b15801561111c57600080fd5b505af1158015611130573d6000803e3d6000fd5b50505050600d6000888152602001908152602001600020600201600081819054906101000a900463ffffffff168092919061116a9061474a565b91906101000a81548163ffffffff021916908363ffffffff160217905550505b6001600f6000856001600281106111a4576111a36143f3565b5b6020020135815260200190815260200160002060006101000a81548160ff02191690831515021790555050600160028190555095945050505050565b6111fb83838360405180602001604052806000815250611a04565b505050565b600061120a610a54565b821061124b576040517f08c379a0000000000000000000000000000000000000000000000000000000008152600401611242906142fb565b60405180910390fd5b6000611261836007611e9890919063ffffffff16565b50905080915050919050565b600061129d82604051806060016040528060298152602001614e03602991396007611ec49092919063ffffffff16565b9050919050565b60008073ffffffffffffffffffffffffffffffffffffffff168273ffffffffffffffffffffffffffffffffffffffff161415611315576040517f08c379a000000000000000000000000000000000000000000000000000000000815260040161130c906147e9565b60405180910390fd5b61135c600660008473ffffffffffffffffffffffffffffffffffffffff1673ffffffffffffffffffffffffffffffffffffffff168152602001908152602001600020611ee3565b9050919050565b61136b61345f565b61137482611be7565b6113b3576040517f08c379a00000000000000000000000000000000000000000000000000000000081526004016113aa90614223565b60405180910390fd5b600d60008381526020019081526020016000206040518060e001604052908160008201548152602001600182015481526020016002820160009054906101000a900463ffffffff1663ffffffff1663ffffffff1681526020016002820160049054906101000a900463ffffffff1663ffffffff1663ffffffff1681526020016002820160089054906101000a900463ffffffff1663ffffffff1663ffffffff16815260200160028201600c9054906101000a900473ffffffffffffffffffffffffffffffffffffffff1673ffffffffffffffffffffffffffffffffffffffff1673ffffffffffffffffffffffffffffffffffffffff1681526020016003820180546114bd906140ee565b80601f01602080910402602001604051908101604052809291908181526020018280546114e9906140ee565b80156115365780601f1061150b57610100808354040283529160200191611536565b820191906000526020600020905b81548152906001019060200180831161151957829003601f168201915b5050505050815250509050919050565b600061155182611be7565b9050919050565b6060600c8054611567906140ee565b80601f0160208091040260200160405190810160405280929190818152602001828054611593906140ee565b80156115e05780601f106115b5576101008083540402835291602001916115e0565b820191906000526020600020905b8154815290600101906020018083116115c357829003601f168201915b5050505050905090565b60036040517f08c379a000000000000000000000000000000000000000000000000000000000815260040161161f91906141b5565b60405180910390fd5b428463ffffffff1611611670576040517f08c379a000000000000000000000000000000000000000000000000000000000815260040161166790614855565b60405180910390fd5b60008363ffffffff16116116b9576040517f08c379a00000000000000000000000000000000000000000000000000000000081526004016116b0906148e7565b60405180910390fd5b600073ffffffffffffffffffffffffffffffffffffffff168273ffffffffffffffffffffffffffffffffffffffff16146117845760008273ffffffffffffffffffffffffffffffffffffffff166370a08231336040518263ffffffff1660e01b815260040161172891906138d7565b60206040518083038186803b15801561174057600080fd5b505afa158015611754573d6000803e3d6000fd5b505050506040513d601f19601f820116820180604052508101906117789190614633565b101561178357600080fd5b5b60006001600a546117959190614907565b9050600a60008154809291906117aa9061495d565b919050555086600e600083815260200190815260200160002090805190602001906117d69291906134c4565b506040518060e00160405280878152602001348152602001600063ffffffff1681526020018663ffffffff1681526020018563ffffffff1681526020018473ffffffffffffffffffffffffffffffffffffffff16815260200183815250600d6000838152602001908152602001600020600082015181600001556020820151816001015560408201518160020160006101000a81548163ffffffff021916908363ffffffff16021790555060608201518160020160046101000a81548163ffffffff021916908363ffffffff16021790555060808201518160020160086101000a81548163ffffffff021916908363ffffffff16021790555060a082015181600201600c6101000a81548173ffffffffffffffffffffffffffffffffffffffff021916908373ffffffffffffffffffffffffffffffffffffffff16021790555060c08201518160030190805190602001906119329291906134c4565b5090505061198781600660003373ffffffffffffffffffffffffffffffffffffffff1673ffffffffffffffffffffffffffffffffffffffff168152602001908152602001600020611ef890919063ffffffff16565b5061199e81336007611f129092919063ffffffff16565b50803373ffffffffffffffffffffffffffffffffffffffff16600073ffffffffffffffffffffffffffffffffffffffff167fddf252ad1be2c89b69c2b068fc378daa952ba7f163c4a11628f55a4df523b3ef60405160405180910390a450505050505050565b60046040517f08c379a0000000000000000000000000000000000000000000000000000000008152600401611a3991906141b5565b60405180910390fd5b600f6020528060005260406000206000915054906101000a900460ff1681565b6060611a6d82611be7565b611aac576040517f08c379a0000000000000000000000000000000000000000000000000000000008152600401611aa390614223565b60405180910390fd5b600e60008381526020019081526020016000208054611aca906140ee565b80601f0160208091040260200160405190810160405280929190818152602001828054611af6906140ee565b8015611b435780601f10611b1857610100808354040283529160200191611b43565b820191906000526020600020905b815481529060010190602001808311611b2657829003601f168201915b50505050509050919050565b600560009054906101000a900473ffffffffffffffffffffffffffffffffffffffff1681565b600092915050565b60007f01ffc9a7000000000000000000000000000000000000000000000000000000007bffffffffffffffffffffffffffffffffffffffffffffffffffffffff1916827bffffffffffffffffffffffffffffffffffffffffffffffffffffffff1916149050919050565b6000611bfd826007611f4790919063ffffffff16565b9050919050565b6000611c16836000018360001b611f61565b905092915050565b6000611c30836000018360001b612075565b905092915050565b6000611c46826000016120ae565b9050919050565b6000611c5c83600001836120c3565b60001c905092915050565b600060019050611d8d866002806020026040519081016040528092919082600260200280828437600081840152601f19601f82011690508083019250505050505086600280602002604051908101604052809291906000905b82821015611d14578382604002016002806020026040519081016040528092919082600260200280828437600081840152601f19601f82011690508083019250505050505081526020019060010190611cc0565b50505050866002806020026040519081016040528092919082600260200280828437600081840152601f19601f820116905080830192505050505050866002806020026040519081016040528092919082600260200280828437600081840152601f19601f8201169050808301925050505050506120ee565b1580611e85575060008054906101000a900473ffffffffffffffffffffffffffffffffffffffff1673ffffffffffffffffffffffffffffffffffffffff166329a5f2f6604051806040016040528086600160028110611def57611dee6143f3565b5b60200201358152602001858152506040518263ffffffff1660e01b8152600401611e199190614a42565b60206040518083038186803b158015611e3157600080fd5b505afa158015611e45573d6000803e3d6000fd5b505050506040513d601f19601f82011682018060405250810190611e699190614633565b83600060028110611e7d57611e7c6143f3565b5b602002013514155b15611e8f57600090505b95945050505050565b600080600080611eab8660000186612368565b915091508160001c8160001c9350935050509250929050565b6000611ed7846000018460001b846123a8565b60001c90509392505050565b6000611ef182600001612429565b9050919050565b6000611f0a836000018360001b61243a565b905092915050565b6000611f3e846000018460001b8473ffffffffffffffffffffffffffffffffffffffff1660001b6124aa565b90509392505050565b6000611f59836000018360001b6124e5565b905092915050565b60008083600101600084815260200190815260200160002054905060008114612069576000600182611f939190614a5d565b9050600060018660000180549050611fab9190614a5d565b905081811461201a576000866000018281548110611fcc57611fcb6143f3565b5b9060005260206000200154905080876000018481548110611ff057611fef6143f3565b5b90600052602060002001819055508387600101600083815260200190815260200160002081905550505b8560000180548061202e5761202d614a91565b5b60019003818190600052602060002001600090559055856001016000868152602001908152602001600020600090556001935050505061206f565b60009150505b92915050565b6000826002016000838152602001908152602001600020600090556120a6828460000161250590919063ffffffff16565b905092915050565b60006120bc8260000161251c565b9050919050565b60008260000182815481106120db576120da6143f3565b5b9060005260206000200154905092915050565b60006120f861354a565b604051806040016040528087600060028110612117576121166143f3565b5b6020020151815260200187600160028110612135576121346143f3565b5b60200201518152508160000181905250604051806040016040528060405180604001604052808860006002811061216f5761216e6143f3565b5b6020020151600060028110612187576121866143f3565b5b60200201518152602001886000600281106121a5576121a46143f3565b5b60200201516001600281106121bd576121bc6143f3565b5b602002015181525081526020016040518060400160405280886001600281106121e9576121e86143f3565b5b6020020151600060028110612201576122006143f3565b5b602002015181526020018860016002811061221f5761221e6143f3565b5b6020020151600160028110612237576122366143f3565b5b60200201518152508152508160200181905250604051806040016040528085600060028110612269576122686143f3565b5b6020020151815260200185600160028110612287576122866143f3565b5b602002015181525081604001819052506000600267ffffffffffffffff8111156122b4576122b3613d03565b5b6040519080825280602002602001820160405280156122e25781602001602082028036833780820191505090505b50905060005b600281101561233b57848160028110612304576123036143f3565b5b602002015182828151811061231c5761231b6143f3565b5b60200260200101818152505080806123339061495d565b9150506122e8565b5060006123488284612531565b141561235957600192505050612360565b6000925050505b949350505050565b6000806000612383848660000161272490919063ffffffff16565b9050808560020160008381526020019081526020016000205492509250509250929050565b6000808460020160008581526020019081526020016000205490506000801b811415806123db57506123da85856124e5565b5b839061241d576040517f08c379a00000000000000000000000000000000000000000000000000000000081526004016124149190613811565b60405180910390fd5b50809150509392505050565b600081600001805490509050919050565b6000612446838361273b565b61249f5782600001829080600181540180825580915050600190039060005260206000200160009091909190915055826000018054905083600101600084815260200190815260200160002081905550600190506124a4565b600090505b92915050565b600081846002016000858152602001908152602001600020819055506124dc838560000161275e90919063ffffffff16565b90509392505050565b60006124fd828460000161277590919063ffffffff16565b905092915050565b60006125148360000183611f61565b905092915050565b600061252a82600001612429565b9050919050565b6000807f30644e72e131a029b85045b68181585d2833e84879b9709143e1f593f00000019050600061256161278c565b9050806080015151600186516125779190614907565b146125b7576040517f08c379a00000000000000000000000000000000000000000000000000000000081526004016125ae90614b0c565b60405180910390fd5b60006040518060400160405280600081526020016000815250905060005b86518110156126a657838782815181106125f2576125f16143f3565b5b60200260200101511061263a576040517f08c379a000000000000000000000000000000000000000000000000000000000815260040161263190614b78565b60405180910390fd5b6126918261268c85608001516001856126539190614907565b81518110612664576126636143f3565b5b60200260200101518a858151811061267f5761267e6143f3565b5b6020026020010151612c06565b612ce3565b9150808061269e9061495d565b9150506125d5565b506126d08183608001516000815181106126c3576126c26143f3565b5b6020026020010151612ce3565b90506127066126e28660000151612de6565b8660200151846000015185602001518587604001518b604001518960600151612e8b565b612716576001935050505061271e565b600093505050505b92915050565b600061273383600001836120c3565b905092915050565b600080836001016000848152602001908152602001600020541415905092915050565b600061276d836000018361243a565b905092915050565b6000612784836000018361273b565b905092915050565b61279461357d565b60405180604001604052807f2d4d9aa7e302d9df41749d5507949d05dbea33fbb16c643b22f599a2be6df2e281526020017f14bedd503c37ceb061d8ec60209fe345ce89830a19230301f076caff004d19268152508160000181905250604051806040016040528060405180604001604052807f0967032fcbf776d1afc985f88877f182d38480a653f2decaa9794cbc3bf3060c81526020017f0e187847ad4c798374d0d6732bf501847dd68bc0e071241e0213bc7fc13db7ab815250815260200160405180604001604052807f304cfbd1e08a704a99f5e847d93f8c3caafddec46b7a0d379da69a4d112346a781526020017f1739c1b1a457a8c7313123d24d2f9192f896b7c63eea05a9d57f06547ad0cec88152508152508160200181905250604051806040016040528060405180604001604052807f198e9393920d483a7260bfb731fb5d25f1aa493335a9e71297e485b7aef312c281526020017f1800deef121f1e76426a00665e5c4479674322d4f75edadd46debd5cd992f6ed815250815260200160405180604001604052807f090689d0585ff075ec9e99ad690c3395bc4b313370b38ef355acdadcd122975b81526020017f12c85ea5db8c6deb4aab71808dcb408fe3d1e7690c43d37b4ce6cc0166fa7daa8152508152508160400181905250604051806040016040528060405180604001604052807f10cea4b915371581454fc509b16e65226b58dbda98d4cd3092c4f176ae01550081526020017f240b8bf7b60f2f802cd9e9ce28b9ba46fee4c2b7fb85c796b2b866337f06c00a815250815260200160405180604001604052807f12a6fe6205eadec3cd5d45fe6457875429a2421de51b3c38606847fe67f9194581526020017f124f58f13fb33b927a5bdc17b59bf99bffa537f7c6095c06f27fad14b9b784e18152508152508160600181905250600367ffffffffffffffff811115612a5b57612a5a613d03565b5b604051908082528060200260200182016040528015612a9457816020015b612a816135c4565b815260200190600190039081612a795790505b50816080018190525060405180604001604052807e2b1cb9025609eeab6954474ef2743eb38537189190c9b1bf7500c31c22840481526020017f116e005718bd947389533718c9e25c55c76255d5d21cfc7a7d76e4f32d9440238152508160800151600081518110612b0957612b086143f3565b5b602002602001018190525060405180604001604052807f1e3b6fa3d66d428e772a8f922c6345aeed5f9aa18acf541d7c909417f7102ce881526020017ec9237917713bb8f9ccd7cae53bdb0e51bf93eac7e09b0010b05050abfd0bc58152508160800151600181518110612b8057612b7f6143f3565b5b602002602001018190525060405180604001604052807f1f51342c025b0d1a85cd1a402109316f9b0db4a6466932a75ecaa28e3b50046081526020017f26cf8425dd2ac0fdc4e67373f62199ad3c8552eb828b7a7a6ceac8032f3b5ebe8152508160800151600281518110612bf857612bf76143f3565b5b602002602001018190525090565b612c0e6135c4565b612c166135de565b836000015181600060038110612c2f57612c2e6143f3565b5b602002018181525050836020015181600160038110612c5157612c506143f3565b5b6020020181815250508281600260038110612c6f57612c6e6143f3565b5b602002018181525050600060608360808460076107d05a03fa90508060008114612c9857612c9a565bfe5b5080612cdb576040517f08c379a0000000000000000000000000000000000000000000000000000000008152600401612cd290614be4565b60405180910390fd5b505092915050565b612ceb6135c4565b612cf3613600565b836000015181600060048110612d0c57612d0b6143f3565b5b602002018181525050836020015181600160048110612d2e57612d2d6143f3565b5b602002018181525050826000015181600260048110612d5057612d4f6143f3565b5b602002018181525050826020015181600360048110612d7257612d716143f3565b5b602002018181525050600060608360c08460066107d05a03fa90508060008114612d9b57612d9d565bfe5b5080612dde576040517f08c379a0000000000000000000000000000000000000000000000000000000008152600401612dd590614c50565b60405180910390fd5b505092915050565b612dee6135c4565b60007f30644e72e131a029b85045b68181585d97816a916871ca8d3c208c16d87cfd47905060008360000151148015612e2b575060008360200151145b15612e4f576040518060400160405280600081526020016000815250915050612e86565b604051806040016040528084600001518152602001828560200151612e749190614c9f565b83612e7f9190614a5d565b8152509150505b919050565b600080600467ffffffffffffffff811115612ea957612ea8613d03565b5b604051908082528060200260200182016040528015612ee257816020015b612ecf6135c4565b815260200190600190039081612ec75790505b5090506000600467ffffffffffffffff811115612f0257612f01613d03565b5b604051908082528060200260200182016040528015612f3b57816020015b612f28613622565b815260200190600190039081612f205790505b5090508a82600081518110612f5357612f526143f3565b5b60200260200101819052508882600181518110612f7357612f726143f3565b5b60200260200101819052508682600281518110612f9357612f926143f3565b5b60200260200101819052508482600381518110612fb357612fb26143f3565b5b60200260200101819052508981600081518110612fd357612fd26143f3565b5b60200260200101819052508781600181518110612ff357612ff26143f3565b5b60200260200101819052508581600281518110613013576130126143f3565b5b60200260200101819052508381600381518110613033576130326143f3565b5b60200260200101819052506130488282613058565b9250505098975050505050505050565b6000815183511461309e576040517f08c379a000000000000000000000000000000000000000000000000000000000815260040161309590614d1c565b60405180910390fd5b60008351905060006006826130b39190614d3c565b905060008167ffffffffffffffff8111156130d1576130d0613d03565b5b6040519080825280602002602001820160405280156130ff5781602001602082028036833780820191505090505b50905060005b83811015613384578681815181106131205761311f6143f3565b5b60200260200101516000015182600060068461313c9190614d3c565b6131469190614907565b81518110613157576131566143f3565b5b602002602001018181525050868181518110613176576131756143f3565b5b6020026020010151602001518260016006846131929190614d3c565b61319c9190614907565b815181106131ad576131ac6143f3565b5b6020026020010181815250508581815181106131cc576131cb6143f3565b5b6020026020010151600001516000600281106131eb576131ea6143f3565b5b60200201518260026006846132009190614d3c565b61320a9190614907565b8151811061321b5761321a6143f3565b5b60200260200101818152505085818151811061323a576132396143f3565b5b602002602001015160000151600160028110613259576132586143f3565b5b602002015182600360068461326e9190614d3c565b6132789190614907565b81518110613289576132886143f3565b5b6020026020010181815250508581815181106132a8576132a76143f3565b5b6020026020010151602001516000600281106132c7576132c66143f3565b5b60200201518260046006846132dc9190614d3c565b6132e69190614907565b815181106132f7576132f66143f3565b5b602002602001018181525050858181518110613316576133156143f3565b5b602002602001015160200151600160028110613335576133346143f3565b5b602002015182600560068461334a9190614d3c565b6133549190614907565b81518110613365576133646143f3565b5b602002602001018181525050808061337c9061495d565b915050613105565b5061338d613648565b6000602082602086026020860160086107d05a03fa905080600081146133b2576133b4565bfe5b50806133f5576040517f08c379a00000000000000000000000000000000000000000000000000000000081526004016133ec90614de2565b60405180910390fd5b60008260006001811061340b5761340a6143f3565b5b602002015114159550505050505092915050565b50805461342b906140ee565b6000825580601f1061343d575061345c565b601f01602090049060005260206000209081019061345b919061366a565b5b50565b6040518060e001604052806000815260200160008152602001600063ffffffff168152602001600063ffffffff168152602001600063ffffffff168152602001600073ffffffffffffffffffffffffffffffffffffffff168152602001606081525090565b8280546134d0906140ee565b90600052602060002090601f0160209004810192826134f25760008555613539565b82601f1061350b57805160ff1916838001178555613539565b82800160010185558215613539579182015b8281111561353857825182559160200191906001019061351d565b5b509050613546919061366a565b5090565b604051806060016040528061355d6135c4565b815260200161356a613622565b81526020016135776135c4565b81525090565b6040518060a001604052806135906135c4565b815260200161359d613622565b81526020016135aa613622565b81526020016135b7613622565b8152602001606081525090565b604051806040016040528060008152602001600081525090565b6040518060600160405280600390602082028036833780820191505090505090565b6040518060800160405280600490602082028036833780820191505090505090565b6040518060400160405280613635613687565b8152602001613642613687565b81525090565b6040518060200160405280600190602082028036833780820191505090505090565b5b8082111561368357600081600090555060010161366b565b5090565b6040518060400160405280600290602082028036833780820191505090505090565b6000604051905090565b600080fd5b600080fd5b60007fffffffff0000000000000000000000000000000000000000000000000000000082169050919050565b6136f2816136bd565b81146136fd57600080fd5b50565b60008135905061370f816136e9565b92915050565b60006020828403121561372b5761372a6136b3565b5b600061373984828501613700565b91505092915050565b60008115159050919050565b61375781613742565b82525050565b6000602082019050613772600083018461374e565b92915050565b600081519050919050565b600082825260208201905092915050565b60005b838110156137b2578082015181840152602081019050613797565b838111156137c1576000848401525b50505050565b6000601f19601f8301169050919050565b60006137e382613778565b6137ed8185613783565b93506137fd818560208601613794565b613806816137c7565b840191505092915050565b6000602082019050818103600083015261382b81846137d8565b905092915050565b6000819050919050565b61384681613833565b811461385157600080fd5b50565b6000813590506138638161383d565b92915050565b60006020828403121561387f5761387e6136b3565b5b600061388d84828501613854565b91505092915050565b600073ffffffffffffffffffffffffffffffffffffffff82169050919050565b60006138c182613896565b9050919050565b6138d1816138b6565b82525050565b60006020820190506138ec60008301846138c8565b92915050565b6138fb816138b6565b811461390657600080fd5b50565b600081359050613918816138f2565b92915050565b60008060408385031215613935576139346136b3565b5b600061394385828601613909565b925050602061395485828601613854565b9150509250929050565b61396781613833565b82525050565b6000602082019050613982600083018461395e565b92915050565b6000806000606084860312156139a1576139a06136b3565b5b60006139af86828701613909565b93505060206139c086828701613909565b92505060406139d186828701613854565b9150509250925092565b6000819050919050565b6000613a006139fb6139f684613896565b6139db565b613896565b9050919050565b6000613a12826139e5565b9050919050565b6000613a2482613a07565b9050919050565b613a3481613a19565b82525050565b6000602082019050613a4f6000830184613a2b565b92915050565b600080fd5b600081905082602060020282011115613a7657613a75613a55565b5b92915050565b600081905082604060020282011115613a9857613a97613a55565b5b92915050565b60008060008060006101608688031215613abb57613aba6136b3565b5b6000613ac988828901613854565b9550506020613ada88828901613a5a565b9450506060613aeb88828901613a7c565b93505060e0613afc88828901613a5a565b925050610120613b0e88828901613a5a565b9150509295509295909350565b600060208284031215613b3157613b306136b3565b5b6000613b3f84828501613909565b91505092915050565b613b5181613833565b82525050565b600063ffffffff82169050919050565b613b7081613b57565b82525050565b613b7f816138b6565b82525050565b600082825260208201905092915050565b6000613ba182613778565b613bab8185613b85565b9350613bbb818560208601613794565b613bc4816137c7565b840191505092915050565b600060e083016000830151613be76000860182613b48565b506020830151613bfa6020860182613b48565b506040830151613c0d6040860182613b67565b506060830151613c206060860182613b67565b506080830151613c336080860182613b67565b5060a0830151613c4660a0860182613b76565b5060c083015184820360c0860152613c5e8282613b96565b9150508091505092915050565b60006020820190508181036000830152613c858184613bcf565b905092915050565b613c9681613742565b8114613ca157600080fd5b50565b600081359050613cb381613c8d565b92915050565b60008060408385031215613cd057613ccf6136b3565b5b6000613cde85828601613909565b9250506020613cef85828601613ca4565b9150509250929050565b600080fd5b600080fd5b7f4e487b7100000000000000000000000000000000000000000000000000000000600052604160045260246000fd5b613d3b826137c7565b810181811067ffffffffffffffff82111715613d5a57613d59613d03565b5b80604052505050565b6000613d6d6136a9565b9050613d798282613d32565b919050565b600067ffffffffffffffff821115613d9957613d98613d03565b5b613da2826137c7565b9050602081019050919050565b82818337600083830152505050565b6000613dd1613dcc84613d7e565b613d63565b905082815260208101848484011115613ded57613dec613cfe565b5b613df8848285613daf565b509392505050565b600082601f830112613e1557613e14613cf9565b5b8135613e25848260208601613dbe565b91505092915050565b613e3781613b57565b8114613e4257600080fd5b50565b600081359050613e5481613e2e565b92915050565b60008060008060008060c08789031215613e7757613e766136b3565b5b600087013567ffffffffffffffff811115613e9557613e946136b8565b5b613ea189828a01613e00565b9650506020613eb289828a01613854565b9550506040613ec389828a01613e45565b9450506060613ed489828a01613e45565b9350506080613ee589828a01613909565b92505060a087013567ffffffffffffffff811115613f0657613f056136b8565b5b613f1289828a01613e00565b9150509295509295509295565b600067ffffffffffffffff821115613f3a57613f39613d03565b5b613f43826137c7565b9050602081019050919050565b6000613f63613f5e84613f1f565b613d63565b905082815260208101848484011115613f7f57613f7e613cfe565b5b613f8a848285613daf565b509392505050565b600082601f830112613fa757613fa6613cf9565b5b8135613fb7848260208601613f50565b91505092915050565b60008060008060808587031215613fda57613fd96136b3565b5b6000613fe887828801613909565b9450506020613ff987828801613909565b935050604061400a87828801613854565b925050606085013567ffffffffffffffff81111561402b5761402a6136b8565b5b61403787828801613f92565b91505092959194509250565b600061404e82613a07565b9050919050565b61405e81614043565b82525050565b60006020820190506140796000830184614055565b92915050565b60008060408385031215614096576140956136b3565b5b60006140a485828601613909565b92505060206140b585828601613909565b9150509250929050565b7f4e487b7100000000000000000000000000000000000000000000000000000000600052602260045260246000fd5b6000600282049050600182168061410657607f821691505b6020821081141561411a576141196140bf565b5b50919050565b60008190508160005260206000209050919050565b60008154614142816140ee565b61414c8186613783565b945060018216600081146141675760018114614179576141ac565b60ff19831686526020860193506141ac565b61418285614120565b60005b838110156141a457815481890152600182019150602081019050614185565b808801955050505b50505092915050565b600060208201905081810360008301526141cf8184614135565b905092915050565b7f54657374657220646f6573206e6f742065786973740000000000000000000000600082015250565b600061420d601583613783565b9150614218826141d7565b602082019050919050565b6000602082019050818103600083015261423c81614200565b9050919050565b7f44656c6574696e67207465737465722074686174206973206e6f74206f776e00600082015250565b6000614279601f83613783565b915061428482614243565b602082019050919050565b600060208201905081810360008301526142a88161426c565b9050919050565b7f496e646578206f7574206f6620626f756e647300000000000000000000000000600082015250565b60006142e5601383613783565b91506142f0826142af565b602082019050919050565b60006020820190508181036000830152614314816142d8565b9050919050565b7f5265656e7472616e637947756172643a207265656e7472616e742063616c6c00600082015250565b6000614351601f83613783565b915061435c8261431b565b602082019050919050565b6000602082019050818103600083015261438081614344565b9050919050565b7f536f6c76696e672074657374207468617420646f6573206e6f74206578697374600082015250565b60006143bd602083613783565b91506143c882614387565b602082019050919050565b600060208201905081810360008301526143ec816143b0565b9050919050565b7f4e487b7100000000000000000000000000000000000000000000000000000000600052603260045260246000fd5b7f53616c742077617320616c726561647920757365640000000000000000000000600082015250565b6000614458601583613783565b915061446382614422565b602082019050919050565b600060208201905081810360008301526144878161444b565b9050919050565b7f5465737465722063616e6e6f7420626520736f6c766564206279206f776e6572600082015250565b60006144c4602083613783565b91506144cf8261448e565b602082019050919050565b600060208201905081810360008301526144f3816144b7565b9050919050565b7f4d6178696d756d206e756d626572206f662063726564656e7469616c7320726560008201527f6163686564000000000000000000000000000000000000000000000000000000602082015250565b6000614556602583613783565b9150614561826144fa565b604082019050919050565b6000602082019050818103600083015261458581614549565b9050919050565b7f54696d65206c696d697420666f7220746869732063726564656e7469616c207260008201527f6561636865640000000000000000000000000000000000000000000000000000602082015250565b60006145e8602683613783565b91506145f38261458c565b604082019050919050565b60006020820190508181036000830152614617816145db565b9050919050565b60008151905061462d8161383d565b92915050565b600060208284031215614649576146486136b3565b5b60006146578482850161461e565b91505092915050565b7f536f6c76657220646f6573206e6f74206f776e2074686520726571756972656460008201527f20746f6b656e0000000000000000000000000000000000000000000000000000602082015250565b60006146bc602683613783565b91506146c782614660565b604082019050919050565b600060208201905081810360008301526146eb816146af565b9050919050565b600060408201905061470760008301856138c8565b614714602083018461395e565b9392505050565b7f4e487b7100000000000000000000000000000000000000000000000000000000600052601160045260246000fd5b600061475582613b57565b915063ffffffff82141561476c5761476b61471b565b5b600182019050919050565b7f4552433732313a2062616c616e636520717565727920666f7220746865207a6560008201527f726f206164647265737300000000000000000000000000000000000000000000602082015250565b60006147d3602a83613783565b91506147de82614777565b604082019050919050565b60006020820190508181036000830152614802816147c6565b9050919050565b7f54696d65206c696d697420697320696e20746865207061737400000000000000600082015250565b600061483f601983613783565b915061484a82614809565b602082019050919050565b6000602082019050818103600083015261486e81614832565b9050919050565b7f43726564656e7469616c206c696d6974206d7573742062652061626f7665207a60008201527f65726f0000000000000000000000000000000000000000000000000000000000602082015250565b60006148d1602383613783565b91506148dc82614875565b604082019050919050565b60006020820190508181036000830152614900816148c4565b9050919050565b600061491282613833565b915061491d83613833565b9250827fffffffffffffffffffffffffffffffffffffffffffffffffffffffffffffffff038211156149525761495161471b565b5b828201905092915050565b600061496882613833565b91507fffffffffffffffffffffffffffffffffffffffffffffffffffffffffffffffff82141561499b5761499a61471b565b5b600182019050919050565b600060029050919050565b600081905092915050565b6000819050919050565b60006149d28383613b48565b60208301905092915050565b6000602082019050919050565b6149f4816149a6565b6149fe81846149b1565b9250614a09826149bc565b8060005b83811015614a3a578151614a2187826149c6565b9650614a2c836149de565b925050600181019050614a0d565b505050505050565b6000604082019050614a5760008301846149eb565b92915050565b6000614a6882613833565b9150614a7383613833565b925082821015614a8657614a8561471b565b5b828203905092915050565b7f4e487b7100000000000000000000000000000000000000000000000000000000600052603160045260246000fd5b7f76657269666965722d6261642d696e7075740000000000000000000000000000600082015250565b6000614af6601283613783565b9150614b0182614ac0565b602082019050919050565b60006020820190508181036000830152614b2581614ae9565b9050919050565b7f76657269666965722d6774652d736e61726b2d7363616c61722d6669656c6400600082015250565b6000614b62601f83613783565b9150614b6d82614b2c565b602082019050919050565b60006020820190508181036000830152614b9181614b55565b9050919050565b7f70616972696e672d6d756c2d6661696c65640000000000000000000000000000600082015250565b6000614bce601283613783565b9150614bd982614b98565b602082019050919050565b60006020820190508181036000830152614bfd81614bc1565b9050919050565b7f70616972696e672d6164642d6661696c65640000000000000000000000000000600082015250565b6000614c3a601283613783565b9150614c4582614c04565b602082019050919050565b60006020820190508181036000830152614c6981614c2d565b9050919050565b7f4e487b7100000000000000000000000000000000000000000000000000000000600052601260045260246000fd5b6000614caa82613833565b9150614cb583613833565b925082614cc557614cc4614c70565b5b828206905092915050565b7f70616972696e672d6c656e677468732d6661696c656400000000000000000000600082015250565b6000614d06601683613783565b9150614d1182614cd0565b602082019050919050565b60006020820190508181036000830152614d3581614cf9565b9050919050565b6000614d4782613833565b9150614d5283613833565b9250817fffffffffffffffffffffffffffffffffffffffffffffffffffffffffffffffff0483118215151615614d8b57614d8a61471b565b5b828202905092915050565b7f70616972696e672d6f70636f64652d6661696c65640000000000000000000000600082015250565b6000614dcc601583613783565b9150614dd782614d96565b602082019050919050565b60006020820190508181036000830152614dfb81614dbf565b905091905056fe4552433732313a206f776e657220717565727920666f72206e6f6e6578697374656e7420746f6b656ea2646970667358221220cd82a8f5ec2c1cdbaf527ae8bf23437b78c66c788ba19e1535f16e349cafb70464736f6c6343000809003360806040526040518060400160405280601f81526020017f4251433a2063616e6e6f7420617070726f76652063726564656e7469616c730081525060029080519060200190620000519291906200039f565b506040518060400160405280602081526020017f4251433a2063616e6e6f74207472616e736665722063726564656e7469616c73815250600390805190602001906200009f9291906200039f565b50348015620000ad57600080fd5b50620000ce620000c2620001f960201b60201c565b6200020160201b60201c565b6040518060400160405280601b81526020017f426c6f636b205175616c69666965642043726564656e7469616c730000000000815250600790805190602001906200011b9291906200039f565b506040518060400160405280600381526020017f425143000000000000000000000000000000000000000000000000000000000081525060089080519060200190620001699291906200039f565b5033600460006101000a81548173ffffffffffffffffffffffffffffffffffffffff021916908373ffffffffffffffffffffffffffffffffffffffff160217905550620001c36380ac58cd60e01b620002c760201b60201c565b620001db635b5e139f60e01b620002c760201b60201c565b620001f363780e9d6360e01b620002c760201b60201c565b62000537565b600033905090565b6000600160009054906101000a900473ffffffffffffffffffffffffffffffffffffffff16905081600160006101000a81548173ffffffffffffffffffffffffffffffffffffffff021916908373ffffffffffffffffffffffffffffffffffffffff1602179055508173ffffffffffffffffffffffffffffffffffffffff168173ffffffffffffffffffffffffffffffffffffffff167f8be0079c531659141344cd1fd0a4f28419497f9722a3daafe3b4186f6b6457e060405160405180910390a35050565b63ffffffff60e01b817bffffffffffffffffffffffffffffffffffffffffffffffffffffffff1916141562000333576040517f08c379a00000000000000000000000000000000000000000000000000000000081526004016200032a90620004b0565b60405180910390fd5b6001600080837bffffffffffffffffffffffffffffffffffffffffffffffffffffffff19167bffffffffffffffffffffffffffffffffffffffffffffffffffffffff1916815260200190815260200160002060006101000a81548160ff02191690831515021790555050565b828054620003ad9062000501565b90600052602060002090601f016020900481019282620003d157600085556200041d565b82601f10620003ec57805160ff19168380011785556200041d565b828001600101855582156200041d579182015b828111156200041c578251825591602001919060010190620003ff565b5b5090506200042c919062000430565b5090565b5b808211156200044b57600081600090555060010162000431565b5090565b600082825260208201905092915050565b7f4552433136353a20696e76616c696420696e7465726661636520696400000000600082015250565b600062000498601c836200044f565b9150620004a58262000460565b602082019050919050565b60006020820190508181036000830152620004cb8162000489565b9050919050565b7f4e487b7100000000000000000000000000000000000000000000000000000000600052602260045260246000fd5b600060028204905060018216806200051a57607f821691505b60208210811415620005315762000530620004d2565b5b50919050565b61249e80620005476000396000f3fe608060405234801561001057600080fd5b506004361061014d5760003560e01c80636352211e116100c3578063a22cb4651161007c578063a22cb465146103c4578063b88d4fde146103e0578063c87b56dd146103fc578063e985e9c51461042c578063f2fde38b1461045c578063f34071da146104785761014d565b80636352211e146102ee57806370a082311461031e578063715018a61461034e5780638da5cb5b146103585780638dd18d2d1461037657806395d89b41146103a65761014d565b8063095ea7b311610115578063095ea7b31461021c57806318160ddd1461023857806323b872dd146102565780632f745c591461027257806342842e0e146102a25780634f6ccce7146102be5761014d565b806301ffc9a714610152578063061e4dde14610182578063068fb56c146101b257806306fdde03146101ce578063081812fc146101ec575b600080fd5b61016c60048036038101906101679190611533565b6104a8565b604051610179919061157b565b60405180910390f35b61019c600480360381019061019791906115f4565b61051f565b6040516101a991906116e9565b60405180910390f35b6101cc60048036038101906101c79190611737565b61056f565b005b6101d6610701565b6040516101e39190611810565b60405180910390f35b61020660048036038101906102019190611832565b610793565b604051610213919061186e565b60405180910390f35b61023660048036038101906102319190611737565b61079a565b005b6102406107d8565b60405161024d9190611898565b60405180910390f35b610270600480360381019061026b91906118b3565b610976565b005b61028c60048036038101906102879190611737565b6109b4565b6040516102999190611898565b60405180910390f35b6102bc60048036038101906102b791906118b3565b610a59565b005b6102d860048036038101906102d39190611832565b610a79565b6040516102e59190611898565b60405180910390f35b61030860048036038101906103039190611832565b610b2d565b604051610315919061186e565b60405180910390f35b610338600480360381019061033391906115f4565b610be1565b6040516103459190611898565b60405180910390f35b610356610ca0565b005b610360610cb4565b60405161036d919061186e565b60405180910390f35b610390600480360381019061038b9190611832565b610cde565b60405161039d9190611810565b60405180910390f35b6103ae610e85565b6040516103bb9190611810565b60405180910390f35b6103de60048036038101906103d99190611932565b610f17565b005b6103fa60048036038101906103f59190611aa7565b610f55565b005b61041660048036038101906104119190611832565b610f93565b6040516104239190611810565b60405180910390f35b61044660048036038101906104419190611b2a565b61104c565b604051610453919061157b565b60405180910390f35b610476600480360381019061047191906115f4565b611054565b005b610492600480360381019061048d9190611832565b6110d8565b60405161049f9190611c28565b60405180910390f35b60006104b3826110fc565b806105185750600080837bffffffffffffffffffffffffffffffffffffffffffffffffffffffff19167bffffffffffffffffffffffffffffffffffffffffffffffffffffffff1916815260200190815260200160002060009054906101000a900460ff165b9050919050565b6060610568600560008473ffffffffffffffffffffffffffffffffffffffff1673ffffffffffffffffffffffffffffffffffffffff168152602001908152602001600020611166565b9050919050565b610577611187565b6105c881600560008573ffffffffffffffffffffffffffffffffffffffff1673ffffffffffffffffffffffffffffffffffffffff16815260200190815260200160002061120590919063ffffffff16565b15610608576040517f08c379a00000000000000000000000000000000000000000000000000000000081526004016105ff90611cbc565b60405180910390fd5b61065981600560008573ffffffffffffffffffffffffffffffffffffffff1673ffffffffffffffffffffffffffffffffffffffff16815260200190815260200160002061121f90919063ffffffff16565b5061067f826006600084815260200190815260200160002061123990919063ffffffff16565b50808273ffffffffffffffffffffffffffffffffffffffff16600460009054906101000a900473ffffffffffffffffffffffffffffffffffffffff1673ffffffffffffffffffffffffffffffffffffffff167fddf252ad1be2c89b69c2b068fc378daa952ba7f163c4a11628f55a4df523b3ef60405160405180910390a45050565b60606007805461071090611d0b565b80601f016020809104026020016040519081016040528092919081815260200182805461073c90611d0b565b80156107895780601f1061075e57610100808354040283529160200191610789565b820191906000526020600020905b81548152906001019060200180831161076c57829003601f168201915b5050505050905090565b6000919050565b60026040517f08c379a00000000000000000000000000000000000000000000000000000000081526004016107cf9190611dd2565b60405180910390fd5b600080600460009054906101000a900473ffffffffffffffffffffffffffffffffffffffff1673ffffffffffffffffffffffffffffffffffffffff166318160ddd6040518163ffffffff1660e01b815260040160206040518083038186803b15801561084357600080fd5b505afa158015610857573d6000803e3d6000fd5b505050506040513d601f19601f8201168201806040525081019061087b9190611e09565b905060005b81811015610971576000600460009054906101000a900473ffffffffffffffffffffffffffffffffffffffff1673ffffffffffffffffffffffffffffffffffffffff16634f6ccce7836040518263ffffffff1660e01b81526004016108e59190611898565b60206040518083038186803b1580156108fd57600080fd5b505afa158015610911573d6000803e3d6000fd5b505050506040513d601f19601f820116820180604052508101906109359190611e09565b905061095260066000838152602001908152602001600020611269565b8461095d9190611e65565b9350508061096a90611ebb565b9050610880565b505090565b60036040517f08c379a00000000000000000000000000000000000000000000000000000000081526004016109ab9190611dd2565b60405180910390fd5b60006109bf83610be1565b8210610a00576040517f08c379a00000000000000000000000000000000000000000000000000000000081526004016109f790611f50565b60405180910390fd5b610a5182600560008673ffffffffffffffffffffffffffffffffffffffff1673ffffffffffffffffffffffffffffffffffffffff16815260200190815260200160002061127e90919063ffffffff16565b905092915050565b610a7483838360405180602001604052806000815250610f55565b505050565b6000600460009054906101000a900473ffffffffffffffffffffffffffffffffffffffff1673ffffffffffffffffffffffffffffffffffffffff16634f6ccce7836040518263ffffffff1660e01b8152600401610ad69190611898565b60206040518083038186803b158015610aee57600080fd5b505afa158015610b02573d6000803e3d6000fd5b505050506040513d601f19601f82011682018060405250810190610b269190611e09565b9050919050565b6000600460009054906101000a900473ffffffffffffffffffffffffffffffffffffffff1673ffffffffffffffffffffffffffffffffffffffff16636352211e836040518263ffffffff1660e01b8152600401610b8a9190611898565b60206040518083038186803b158015610ba257600080fd5b505afa158015610bb6573d6000803e3d6000fd5b505050506040513d601f19601f82011682018060405250810190610bda9190611f85565b9050919050565b60008073ffffffffffffffffffffffffffffffffffffffff168273ffffffffffffffffffffffffffffffffffffffff161415610c52576040517f08c379a0000000000000000000000000000000000000000000000000000000008152600401610c4990612024565b60405180910390fd5b610c99600560008473ffffffffffffffffffffffffffffffffffffffff1673ffffffffffffffffffffffffffffffffffffffff168152602001908152602001600020611298565b9050919050565b610ca8611187565b610cb260006112ad565b565b6000600160009054906101000a900473ffffffffffffffffffffffffffffffffffffffff16905090565b6060600460009054906101000a900473ffffffffffffffffffffffffffffffffffffffff1673ffffffffffffffffffffffffffffffffffffffff166394a75e08836040518263ffffffff1660e01b8152600401610d3b9190611898565b60206040518083038186803b158015610d5357600080fd5b505afa158015610d67573d6000803e3d6000fd5b505050506040513d601f19601f82011682018060405250810190610d8b9190612059565b610dca576040517f08c379a0000000000000000000000000000000000000000000000000000000008152600401610dc1906120d2565b60405180910390fd5b600460009054906101000a900473ffffffffffffffffffffffffffffffffffffffff1673ffffffffffffffffffffffffffffffffffffffff166388b6f5ee836040518263ffffffff1660e01b8152600401610e259190611898565b60006040518083038186803b158015610e3d57600080fd5b505afa158015610e51573d6000803e3d6000fd5b505050506040513d6000823e3d601f19601f82011682018060405250810190610e7a91906122a9565b60c001519050919050565b606060088054610e9490611d0b565b80601f0160208091040260200160405190810160405280929190818152602001828054610ec090611d0b565b8015610f0d5780601f10610ee257610100808354040283529160200191610f0d565b820191906000526020600020905b815481529060010190602001808311610ef057829003601f168201915b5050505050905090565b60026040517f08c379a0000000000000000000000000000000000000000000000000000000008152600401610f4c9190611dd2565b60405180910390fd5b60036040517f08c379a0000000000000000000000000000000000000000000000000000000008152600401610f8a9190611dd2565b60405180910390fd5b6060600460009054906101000a900473ffffffffffffffffffffffffffffffffffffffff1673ffffffffffffffffffffffffffffffffffffffff1663c87b56dd836040518263ffffffff1660e01b8152600401610ff09190611898565b60006040518083038186803b15801561100857600080fd5b505afa15801561101c573d6000803e3d6000fd5b505050506040513d6000823e3d601f19601f8201168201806040525081019061104591906122f2565b9050919050565b600092915050565b61105c611187565b600073ffffffffffffffffffffffffffffffffffffffff168173ffffffffffffffffffffffffffffffffffffffff1614156110cc576040517f08c379a00000000000000000000000000000000000000000000000000000000081526004016110c3906123ad565b60405180910390fd5b6110d5816112ad565b50565b60606110f560066000848152602001908152602001600020611373565b9050919050565b60007f01ffc9a7000000000000000000000000000000000000000000000000000000007bffffffffffffffffffffffffffffffffffffffffffffffffffffffff1916827bffffffffffffffffffffffffffffffffffffffffffffffffffffffff1916149050919050565b6060600061117683600001611394565b905060608190508092505050919050565b61118f6113f0565b73ffffffffffffffffffffffffffffffffffffffff166111ad610cb4565b73ffffffffffffffffffffffffffffffffffffffff1614611203576040517f08c379a00000000000000000000000000000000000000000000000000000000081526004016111fa90612419565b60405180910390fd5b565b6000611217836000018360001b6113f8565b905092915050565b6000611231836000018360001b61141b565b905092915050565b6000611261836000018373ffffffffffffffffffffffffffffffffffffffff1660001b61141b565b905092915050565b60006112778260000161148b565b9050919050565b600061128d836000018361149c565b60001c905092915050565b60006112a68260000161148b565b9050919050565b6000600160009054906101000a900473ffffffffffffffffffffffffffffffffffffffff16905081600160006101000a81548173ffffffffffffffffffffffffffffffffffffffff021916908373ffffffffffffffffffffffffffffffffffffffff1602179055508173ffffffffffffffffffffffffffffffffffffffff168173ffffffffffffffffffffffffffffffffffffffff167f8be0079c531659141344cd1fd0a4f28419497f9722a3daafe3b4186f6b6457e060405160405180910390a35050565b6060600061138383600001611394565b905060608190508092505050919050565b6060816000018054806020026020016040519081016040528092919081815260200182805480156113e457602002820191906000526020600020905b8154815260200190600101908083116113d0575b50505050509050919050565b600033905090565b600080836001016000848152602001908152602001600020541415905092915050565b600061142783836113f8565b611480578260000182908060018154018082558091505060019003906000526020600020016000909190919091505582600001805490508360010160008481526020019081526020016000208190555060019050611485565b600090505b92915050565b600081600001805490509050919050565b60008260000182815481106114b4576114b3612439565b5b9060005260206000200154905092915050565b6000604051905090565b600080fd5b600080fd5b60007fffffffff0000000000000000000000000000000000000000000000000000000082169050919050565b611510816114db565b811461151b57600080fd5b50565b60008135905061152d81611507565b92915050565b600060208284031215611549576115486114d1565b5b60006115578482850161151e565b91505092915050565b60008115159050919050565b61157581611560565b82525050565b6000602082019050611590600083018461156c565b92915050565b600073ffffffffffffffffffffffffffffffffffffffff82169050919050565b60006115c182611596565b9050919050565b6115d1816115b6565b81146115dc57600080fd5b50565b6000813590506115ee816115c8565b92915050565b60006020828403121561160a576116096114d1565b5b6000611618848285016115df565b91505092915050565b600081519050919050565b600082825260208201905092915050565b6000819050602082019050919050565b6000819050919050565b6116608161164d565b82525050565b60006116728383611657565b60208301905092915050565b6000602082019050919050565b600061169682611621565b6116a0818561162c565b93506116ab8361163d565b8060005b838110156116dc5781516116c38882611666565b97506116ce8361167e565b9250506001810190506116af565b5085935050505092915050565b60006020820190508181036000830152611703818461168b565b905092915050565b6117148161164d565b811461171f57600080fd5b50565b6000813590506117318161170b565b92915050565b6000806040838503121561174e5761174d6114d1565b5b600061175c858286016115df565b925050602061176d85828601611722565b9150509250929050565b600081519050919050565b600082825260208201905092915050565b60005b838110156117b1578082015181840152602081019050611796565b838111156117c0576000848401525b50505050565b6000601f19601f8301169050919050565b60006117e282611777565b6117ec8185611782565b93506117fc818560208601611793565b611805816117c6565b840191505092915050565b6000602082019050818103600083015261182a81846117d7565b905092915050565b600060208284031215611848576118476114d1565b5b600061185684828501611722565b91505092915050565b611868816115b6565b82525050565b6000602082019050611883600083018461185f565b92915050565b6118928161164d565b82525050565b60006020820190506118ad6000830184611889565b92915050565b6000806000606084860312156118cc576118cb6114d1565b5b60006118da868287016115df565b93505060206118eb868287016115df565b92505060406118fc86828701611722565b9150509250925092565b61190f81611560565b811461191a57600080fd5b50565b60008135905061192c81611906565b92915050565b60008060408385031215611949576119486114d1565b5b6000611957858286016115df565b92505060206119688582860161191d565b9150509250929050565b600080fd5b600080fd5b7f4e487b7100000000000000000000000000000000000000000000000000000000600052604160045260246000fd5b6119b4826117c6565b810181811067ffffffffffffffff821117156119d3576119d261197c565b5b80604052505050565b60006119e66114c7565b90506119f282826119ab565b919050565b600067ffffffffffffffff821115611a1257611a1161197c565b5b611a1b826117c6565b9050602081019050919050565b82818337600083830152505050565b6000611a4a611a45846119f7565b6119dc565b905082815260208101848484011115611a6657611a65611977565b5b611a71848285611a28565b509392505050565b600082601f830112611a8e57611a8d611972565b5b8135611a9e848260208601611a37565b91505092915050565b60008060008060808587031215611ac157611ac06114d1565b5b6000611acf878288016115df565b9450506020611ae0878288016115df565b9350506040611af187828801611722565b925050606085013567ffffffffffffffff811115611b1257611b116114d6565b5b611b1e87828801611a79565b91505092959194509250565b60008060408385031215611b4157611b406114d1565b5b6000611b4f858286016115df565b9250506020611b60858286016115df565b9150509250929050565b600081519050919050565b600082825260208201905092915050565b6000819050602082019050919050565b611b9f816115b6565b82525050565b6000611bb18383611b96565b60208301905092915050565b6000602082019050919050565b6000611bd582611b6a565b611bdf8185611b75565b9350611bea83611b86565b8060005b83811015611c1b578151611c028882611ba5565b9750611c0d83611bbd565b925050600181019050611bee565b5085935050505092915050565b60006020820190508181036000830152611c428184611bca565b905092915050565b7f536f6c76657220616c7265616479206761696e65642063726564656e7469616c60008201527f7300000000000000000000000000000000000000000000000000000000000000602082015250565b6000611ca6602183611782565b9150611cb182611c4a565b604082019050919050565b60006020820190508181036000830152611cd581611c99565b9050919050565b7f4e487b7100000000000000000000000000000000000000000000000000000000600052602260045260246000fd5b60006002820490506001821680611d2357607f821691505b60208210811415611d3757611d36611cdc565b5b50919050565b60008190508160005260206000209050919050565b60008154611d5f81611d0b565b611d698186611782565b94506001821660008114611d845760018114611d9657611dc9565b60ff1983168652602086019350611dc9565b611d9f85611d3d565b60005b83811015611dc157815481890152600182019150602081019050611da2565b808801955050505b50505092915050565b60006020820190508181036000830152611dec8184611d52565b905092915050565b600081519050611e038161170b565b92915050565b600060208284031215611e1f57611e1e6114d1565b5b6000611e2d84828501611df4565b91505092915050565b7f4e487b7100000000000000000000000000000000000000000000000000000000600052601160045260246000fd5b6000611e708261164d565b9150611e7b8361164d565b9250827fffffffffffffffffffffffffffffffffffffffffffffffffffffffffffffffff03821115611eb057611eaf611e36565b5b828201905092915050565b6000611ec68261164d565b91507fffffffffffffffffffffffffffffffffffffffffffffffffffffffffffffffff821415611ef957611ef8611e36565b5b600182019050919050565b7f496e646578206f7574206f6620626f756e647300000000000000000000000000600082015250565b6000611f3a601383611782565b9150611f4582611f04565b602082019050919050565b60006020820190508181036000830152611f6981611f2d565b9050919050565b600081519050611f7f816115c8565b92915050565b600060208284031215611f9b57611f9a6114d1565b5b6000611fa984828501611f70565b91505092915050565b7f4552433732313a2062616c616e636520717565727920666f7220746865207a6560008201527f726f206164647265737300000000000000000000000000000000000000000000602082015250565b600061200e602a83611782565b915061201982611fb2565b604082019050919050565b6000602082019050818103600083015261203d81612001565b9050919050565b60008151905061205381611906565b92915050565b60006020828403121561206f5761206e6114d1565b5b600061207d84828501612044565b91505092915050565b7f54657374657220646f6573206e6f742065786973740000000000000000000000600082015250565b60006120bc601583611782565b91506120c782612086565b602082019050919050565b600060208201905081810360008301526120eb816120af565b9050919050565b600080fd5b600080fd5b600063ffffffff82169050919050565b612115816120fc565b811461212057600080fd5b50565b6000815190506121328161210c565b92915050565b600067ffffffffffffffff8211156121535761215261197c565b5b61215c826117c6565b9050602081019050919050565b600061217c61217784612138565b6119dc565b90508281526020810184848401111561219857612197611977565b5b6121a3848285611793565b509392505050565b600082601f8301126121c0576121bf611972565b5b81516121d0848260208601612169565b91505092915050565b600060e082840312156121ef576121ee6120f2565b5b6121f960e06119dc565b9050600061220984828501611df4565b600083015250602061221d84828501611df4565b602083015250604061223184828501612123565b604083015250606061224584828501612123565b606083015250608061225984828501612123565b60808301525060a061226d84828501611f70565b60a08301525060c082015167ffffffffffffffff811115612291576122906120f7565b5b61229d848285016121ab565b60c08301525092915050565b6000602082840312156122bf576122be6114d1565b5b600082015167ffffffffffffffff8111156122dd576122dc6114d6565b5b6122e9848285016121d9565b91505092915050565b600060208284031215612308576123076114d1565b5b600082015167ffffffffffffffff811115612326576123256114d6565b5b612332848285016121ab565b91505092915050565b7f4f776e61626c653a206e6577206f776e657220697320746865207a65726f206160008201527f6464726573730000000000000000000000000000000000000000000000000000602082015250565b6000612397602683611782565b91506123a28261233b565b604082019050919050565b600060208201905081810360008301526123c68161238a565b9050919050565b7f4f776e61626c653a2063616c6c6572206973206e6f7420746865206f776e6572600082015250565b6000612403602083611782565b915061240e826123cd565b602082019050919050565b60006020820190508181036000830152612432816123f6565b9050919050565b7f4e487b7100000000000000000000000000000000000000000000000000000000600052603260045260246000fdfea2646970667358221220f71862144d4cec8ed3ed11e5cc9654de1f31cf236def9a05eb8e00572186cf9764736f6c63430008090033",
  "linkReferences": {},
  "deployedLinkReferences": {}
}